{"abi":[{"inputs":[{"internalType":"uint256","name":"minimum","type":"uint256"},{"internalType":"address","name":"creator","type":"address"}],"stateMutability":"nonpayable","type":"constructor"},{"inputs":[{"internalType":"uint256","name":"index","type":"uint256"}],"name":"approveRequest","outputs":[],"stateMutability":"nonpayable","type":"function"},{"inputs":[{"internalType":"address","name":"","type":"address"}],"name":"approvers","outputs":[{"internalType":"bool","name":"","type":"bool"}],"stateMutability":"view","type":"function"},{"inputs":[],"name":"approversCount","outputs":[{"internalType":"uint256","name":"","type":"uint256"}],"stateMutability":"view","type":"function"},{"inputs":[],"name":"contribute","outputs":[],"stateMutability":"payable","type":"function"},{"inputs":[{"internalType":"string","name":"description","type":"string"},{"internalType":"uint256","name":"value","type":"uint256"},{"internalType":"address","name":"recipient","type":"address"}],"name":"createRequest","outputs":[],"stateMutability":"nonpayable","type":"function"},{"inputs":[{"internalType":"uint256","name":"index","type":"uint256"}],"name":"finalizeRequest","outputs":[],"stateMutability":"nonpayable","type":"function"},{"inputs":[],"name":"getRequestsCount","outputs":[{"internalType":"uint256","name":"","type":"uint256"}],"stateMutability":"view","type":"function"},{"inputs":[],"name":"getSummary","outputs":[{"internalType":"string","name":"","type":"string"},{"internalType":"string","name":"","type":"string"},{"internalType":"string","name":"","type":"string"},{"internalType":"string","name":"","type":"string"},{"internalType":"string","name":"","type":"string"}],"stateMutability":"view","type":"function"},{"inputs":[],"name":"manager","outputs":[{"internalType":"address","name":"","type":"address"}],"stateMutability":"view","type":"function"},{"inputs":[],"name":"minimumContribution","outputs":[{"internalType":"uint256","name":"","type":"uint256"}],"stateMutability":"view","type":"function"},{"inputs":[{"internalType":"uint256","name":"","type":"uint256"}],"name":"requests","outputs":[{"internalType":"string","name":"description","type":"string"},{"internalType":"uint256","name":"value","type":"uint256"},{"internalType":"address","name":"recipient","type":"address"},{"internalType":"bool","name":"complete","type":"bool"},{"internalType":"uint256","name":"approvalCount","type":"uint256"}],"stateMutability":"view","type":"function"}],"devdoc":{"kind":"dev","methods":{},"version":1},"evm":{"assembly":"    /* \"Campaign.sol\":434:3686  contract Campaign {... */\n  mstore(0x40, 0x80)\n    /* \"Campaign.sol\":961:1077  constructor(uint minimum, address creator) {... */\n  callvalue\n  dup1\n  iszero\n  tag_1\n  jumpi\n  0x00\n  dup1\n  revert\ntag_1:\n  pop\n  mload(0x40)\n  sub(codesize, bytecodeSize)\n  dup1\n  bytecodeSize\n  dup4\n  codecopy\n  dup2\n  add\n  0x40\n  dup2\n  swap1\n  mstore\n  tag_2\n  swap2\n  tag_3\n  jump\t// in\ntag_2:\n    /* \"Campaign.sol\":1014:1021  manager */\n  0x00\n    /* \"Campaign.sol\":1014:1031  manager = creator */\n  dup1\n  sload\n  not(sub(shl(0xa0, 0x01), 0x01))\n  and\n  sub(shl(0xa0, 0x01), 0x01)\n  swap3\n  swap1\n  swap3\n  and\n  swap2\n  swap1\n  swap2\n  or\n  swap1\n  sstore\n  0x01\n    /* \"Campaign.sol\":1041:1070  minimumContribution = minimum */\n  sstore\n    /* \"Campaign.sol\":434:3686  contract Campaign {... */\n  jump(tag_7)\n    /* \"#utility.yul\":14:365   */\ntag_3:\n    /* \"#utility.yul\":93:99   */\n  0x00\n    /* \"#utility.yul\":101:107   */\n  dup1\n    /* \"#utility.yul\":154:156   */\n  0x40\n    /* \"#utility.yul\":142:151   */\n  dup4\n    /* \"#utility.yul\":133:140   */\n  dup6\n    /* \"#utility.yul\":129:152   */\n  sub\n    /* \"#utility.yul\":125:157   */\n  slt\n    /* \"#utility.yul\":122:174   */\n  iszero\n  tag_9\n  jumpi\n    /* \"#utility.yul\":170:171   */\n  0x00\n    /* \"#utility.yul\":167:168   */\n  dup1\n    /* \"#utility.yul\":160:172   */\n  revert\n    /* \"#utility.yul\":122:174   */\ntag_9:\n    /* \"#utility.yul\":193:209   */\n  dup3\n  mload\n    /* \"#utility.yul\":252:254   */\n  0x20\n    /* \"#utility.yul\":237:255   */\n  dup5\n  add\n    /* \"#utility.yul\":231:256   */\n  mload\n    /* \"#utility.yul\":193:209   */\n  swap1\n  swap3\n  pop\n  sub(shl(0xa0, 0x01), 0x01)\n    /* \"#utility.yul\":285:316   */\n  dup2\n  and\n    /* \"#utility.yul\":275:317   */\n  dup2\n  eq\n    /* \"#utility.yul\":265:335   */\n  tag_10\n  jumpi\n    /* \"#utility.yul\":331:332   */\n  0x00\n    /* \"#utility.yul\":328:329   */\n  dup1\n    /* \"#utility.yul\":321:333   */\n  revert\n    /* \"#utility.yul\":265:335   */\ntag_10:\n    /* \"#utility.yul\":354:359   */\n  dup1\n    /* \"#utility.yul\":344:359   */\n  swap2\n  pop\n  pop\n    /* \"#utility.yul\":14:365   */\n  swap3\n  pop\n  swap3\n  swap1\n  pop\n  jump\t// out\ntag_7:\n    /* \"Campaign.sol\":434:3686  contract Campaign {... */\n  dataSize(sub_0)\n  dup1\n  dataOffset(sub_0)\n  0x00\n  codecopy\n  0x00\n  return\nstop\n\nsub_0: assembly {\n        /* \"Campaign.sol\":434:3686  contract Campaign {... */\n      mstore(0x40, 0x80)\n      jumpi(tag_1, lt(calldatasize, 0x04))\n      shr(0xe0, calldataload(0x00))\n      dup1\n      0x81d12c58\n      gt\n      tag_13\n      jumpi\n      dup1\n      0x81d12c58\n      eq\n      tag_7\n      jumpi\n      dup1\n      0x82fde093\n      eq\n      tag_8\n      jumpi\n      dup1\n      0x8a9cfd55\n      eq\n      tag_9\n      jumpi\n      dup1\n      0x937e09b1\n      eq\n      tag_10\n      jumpi\n      dup1\n      0xd7bb99ba\n      eq\n      tag_11\n      jumpi\n      dup1\n      0xd7d1bbdb\n      eq\n      tag_12\n      jumpi\n      0x00\n      dup1\n      revert\n    tag_13:\n      dup1\n      0x03441006\n      eq\n      tag_2\n      jumpi\n      dup1\n      0x0a144391\n      eq\n      tag_3\n      jumpi\n      dup1\n      0x3410452a\n      eq\n      tag_4\n      jumpi\n      dup1\n      0x4051ddac\n      eq\n      tag_5\n      jumpi\n      dup1\n      0x481c6a75\n      eq\n      tag_6\n      jumpi\n    tag_1:\n      0x00\n      dup1\n      revert\n        /* \"Campaign.sol\":1843:2150  function finalizeRequest(uint index) public restricted {... */\n    tag_2:\n      callvalue\n      dup1\n      iszero\n      tag_14\n      jumpi\n      0x00\n      dup1\n      revert\n    tag_14:\n      pop\n      tag_15\n      tag_16\n      calldatasize\n      0x04\n      tag_17\n      jump\t// in\n    tag_16:\n      tag_18\n      jump\t// in\n    tag_15:\n      stop\n        /* \"Campaign.sol\":721:762  mapping(address => bool) public approvers */\n    tag_3:\n      callvalue\n      dup1\n      iszero\n      tag_19\n      jumpi\n      0x00\n      dup1\n      revert\n    tag_19:\n      pop\n      tag_20\n      tag_21\n      calldatasize\n      0x04\n      tag_22\n      jump\t// in\n    tag_21:\n      mstore(0x20, 0x02)\n      0x00\n      swap1\n      dup2\n      mstore\n      0x40\n      swap1\n      keccak256\n      sload\n      0xff\n      and\n      dup2\n      jump\n    tag_20:\n      mload(0x40)\n        /* \"#utility.yul\":733:747   */\n      swap1\n      iszero\n        /* \"#utility.yul\":726:748   */\n      iszero\n        /* \"#utility.yul\":708:749   */\n      dup2\n      mstore\n        /* \"#utility.yul\":696:698   */\n      0x20\n        /* \"#utility.yul\":681:699   */\n      add\n        /* \"Campaign.sol\":721:762  mapping(address => bool) public approvers */\n    tag_24:\n      mload(0x40)\n      dup1\n      swap2\n      sub\n      swap1\n      return\n        /* \"Campaign.sol\":2537:2627  function getRequestsCount() public view returns (uint) {... */\n    tag_4:\n      callvalue\n      dup1\n      iszero\n      tag_26\n      jumpi\n      0x00\n      dup1\n      revert\n    tag_26:\n      pop\n        /* \"Campaign.sol\":2609:2620  numRequests */\n      sload(0x04)\n        /* \"Campaign.sol\":2537:2627  function getRequestsCount() public view returns (uint) {... */\n    tag_27:\n      mload(0x40)\n        /* \"#utility.yul\":906:931   */\n      swap1\n      dup2\n      mstore\n        /* \"#utility.yul\":894:896   */\n      0x20\n        /* \"#utility.yul\":879:897   */\n      add\n        /* \"Campaign.sol\":2537:2627  function getRequestsCount() public view returns (uint) {... */\n      tag_24\n        /* \"#utility.yul\":760:937   */\n      jump\n        /* \"Campaign.sol\":2156:2527  function getSummary() public view returns (... */\n    tag_5:\n      callvalue\n      dup1\n      iszero\n      tag_31\n      jumpi\n      0x00\n      dup1\n      revert\n    tag_31:\n      pop\n      tag_32\n      tag_33\n      jump\t// in\n    tag_32:\n      mload(0x40)\n      tag_24\n      swap6\n      swap5\n      swap4\n      swap3\n      swap2\n      swap1\n      tag_35\n      jump\t// in\n        /* \"Campaign.sol\":656:678  address public manager */\n    tag_6:\n      callvalue\n      dup1\n      iszero\n      tag_36\n      jumpi\n      0x00\n      dup1\n      revert\n    tag_36:\n      pop\n      sload(0x00)\n      tag_37\n      swap1\n      sub(shl(0xa0, 0x01), 0x01)\n      and\n      dup2\n      jump\n    tag_37:\n      mload(0x40)\n      sub(shl(0xa0, 0x01), 0x01)\n        /* \"#utility.yul\":2414:2446   */\n      swap1\n      swap2\n      and\n        /* \"#utility.yul\":2396:2447   */\n      dup2\n      mstore\n        /* \"#utility.yul\":2384:2386   */\n      0x20\n        /* \"#utility.yul\":2369:2387   */\n      add\n        /* \"Campaign.sol\":656:678  address public manager */\n      tag_24\n        /* \"#utility.yul\":2250:2453   */\n      jump\n        /* \"Campaign.sol\":825:868  mapping(uint256 => Request) public requests */\n    tag_7:\n      callvalue\n      dup1\n      iszero\n      tag_41\n      jumpi\n      0x00\n      dup1\n      revert\n    tag_41:\n      pop\n      tag_42\n      tag_43\n      calldatasize\n      0x04\n      tag_17\n      jump\t// in\n    tag_43:\n      tag_44\n      jump\t// in\n    tag_42:\n      mload(0x40)\n      tag_24\n      swap6\n      swap5\n      swap4\n      swap3\n      swap2\n      swap1\n      tag_46\n      jump\t// in\n        /* \"Campaign.sol\":768:794  uint public approversCount */\n    tag_8:\n      callvalue\n      dup1\n      iszero\n      tag_47\n      jumpi\n      0x00\n      dup1\n      revert\n    tag_47:\n      pop\n      tag_27\n      sload(0x03)\n      dup2\n      jump\n        /* \"Campaign.sol\":1248:1560  function createRequest(string memory description, uint value, address recipient) public restricted {... */\n    tag_9:\n      callvalue\n      dup1\n      iszero\n      tag_51\n      jumpi\n      0x00\n      dup1\n      revert\n    tag_51:\n      pop\n      tag_15\n      tag_53\n      calldatasize\n      0x04\n      tag_54\n      jump\t// in\n    tag_53:\n      tag_55\n      jump\t// in\n        /* \"Campaign.sol\":684:715  uint public minimumContribution */\n    tag_10:\n      callvalue\n      dup1\n      iszero\n      tag_56\n      jumpi\n      0x00\n      dup1\n      revert\n    tag_56:\n      pop\n      tag_27\n      sload(0x01)\n      dup2\n      jump\n        /* \"Campaign.sol\":1083:1242  function contribute() public payable {... */\n    tag_11:\n      tag_15\n      tag_61\n      jump\t// in\n        /* \"Campaign.sol\":1566:1837  function approveRequest(uint index) public {... */\n    tag_12:\n      callvalue\n      dup1\n      iszero\n      tag_62\n      jumpi\n      0x00\n      dup1\n      revert\n    tag_62:\n      pop\n      tag_15\n      tag_64\n      calldatasize\n      0x04\n      tag_17\n      jump\t// in\n    tag_64:\n      tag_65\n      jump\t// in\n        /* \"Campaign.sol\":1843:2150  function finalizeRequest(uint index) public restricted {... */\n    tag_18:\n        /* \"Campaign.sol\":929:936  manager */\n      and(sub(shl(0xa0, 0x01), 0x01), sload(0x00))\n        /* \"Campaign.sol\":915:925  msg.sender */\n      caller\n        /* \"Campaign.sol\":915:936  msg.sender == manager */\n      eq\n        /* \"Campaign.sol\":907:937  require(msg.sender == manager) */\n      tag_67\n      jumpi\n      0x00\n      dup1\n      revert\n    tag_67:\n        /* \"Campaign.sol\":1908:1931  Request storage request */\n      0x00\n        /* \"Campaign.sol\":1934:1949  requests[index] */\n      dup2\n      dup2\n      mstore\n        /* \"Campaign.sol\":1934:1942  requests */\n      0x05\n        /* \"Campaign.sol\":1934:1949  requests[index] */\n      0x20\n      mstore\n      0x40\n      swap1\n      keccak256\n        /* \"Campaign.sol\":1993:2007  approversCount */\n      sload(0x03)\n        /* \"Campaign.sol\":1993:2011  approversCount / 2 */\n      tag_69\n      swap1\n        /* \"Campaign.sol\":2010:2011  2 */\n      0x02\n      swap1\n        /* \"Campaign.sol\":1993:2011  approversCount / 2 */\n      tag_70\n      jump\t// in\n    tag_69:\n        /* \"Campaign.sol\":1968:1975  request */\n      dup2\n        /* \"Campaign.sol\":1968:1989  request.approvalCount */\n      0x03\n      add\n      sload\n        /* \"Campaign.sol\":1968:2012  request.approvalCount > (approversCount / 2) */\n      gt\n        /* \"Campaign.sol\":1960:2013  require(request.approvalCount > (approversCount / 2)) */\n      tag_71\n      jumpi\n      0x00\n      dup1\n      revert\n    tag_71:\n        /* \"Campaign.sol\":2032:2048  request.complete */\n      0x02\n      dup2\n      add\n      sload\n      shl(0xa0, 0x01)\n      swap1\n      div\n      0xff\n      and\n        /* \"Campaign.sol\":2031:2048  !request.complete */\n      iszero\n        /* \"Campaign.sol\":2023:2049  require(!request.complete) */\n      tag_72\n      jumpi\n      0x00\n      dup1\n      revert\n    tag_72:\n        /* \"Campaign.sol\":2068:2085  request.recipient */\n      0x02\n      dup2\n      add\n      sload\n      0x01\n        /* \"Campaign.sol\":2096:2109  request.value */\n      dup3\n      add\n      sload\n        /* \"Campaign.sol\":2060:2110  payable(request.recipient).transfer(request.value) */\n      mload(0x40)\n      sub(shl(0xa0, 0x01), 0x01)\n        /* \"Campaign.sol\":2068:2085  request.recipient */\n      swap1\n      swap3\n      and\n      swap2\n        /* \"Campaign.sol\":2060:2110  payable(request.recipient).transfer(request.value) */\n      dup2\n      iszero\n      0x08fc\n      mul\n      swap2\n        /* \"Campaign.sol\":2096:2109  request.value */\n      swap1\n        /* \"Campaign.sol\":2068:2085  request.recipient */\n      0x00\n        /* \"Campaign.sol\":2060:2110  payable(request.recipient).transfer(request.value) */\n      dup2\n        /* \"Campaign.sol\":2068:2085  request.recipient */\n      dup2\n        /* \"Campaign.sol\":2060:2110  payable(request.recipient).transfer(request.value) */\n      dup2\n        /* \"Campaign.sol\":2096:2109  request.value */\n      dup6\n        /* \"Campaign.sol\":2068:2085  request.recipient */\n      dup9\n        /* \"Campaign.sol\":2060:2110  payable(request.recipient).transfer(request.value) */\n      dup9\n      call\n      swap4\n      pop\n      pop\n      pop\n      pop\n      iszero\n      dup1\n      iszero\n      tag_74\n      jumpi\n      returndatasize\n      0x00\n      dup1\n      returndatacopy\n      revert(0x00, returndatasize)\n    tag_74:\n      pop\n        /* \"Campaign.sol\":2120:2136  request.complete */\n      0x02\n      add\n        /* \"Campaign.sol\":2120:2143  request.complete = true */\n      dup1\n      sload\n      not(shl(0xa0, 0xff))\n      and\n      shl(0xa0, 0x01)\n      or\n      swap1\n      sstore\n      pop\n        /* \"Campaign.sol\":1843:2150  function finalizeRequest(uint index) public restricted {... */\n      jump\t// out\n        /* \"Campaign.sol\":2156:2527  function getSummary() public view returns (... */\n    tag_33:\n        /* \"Campaign.sol\":2206:2219  string memory */\n      0x60\n        /* \"Campaign.sol\":2221:2234  string memory */\n      dup1\n        /* \"Campaign.sol\":2236:2249  string memory */\n      0x60\n        /* \"Campaign.sol\":2251:2264  string memory */\n      dup1\n        /* \"Campaign.sol\":2266:2279  string memory */\n      0x60\n        /* \"Campaign.sol\":2317:2350  uintToString(minimumContribution) */\n      tag_77\n        /* \"Campaign.sol\":2330:2349  minimumContribution */\n      sload(0x01)\n        /* \"Campaign.sol\":2317:2329  uintToString */\n      tag_78\n        /* \"Campaign.sol\":2317:2350  uintToString(minimumContribution) */\n      jump\t// in\n    tag_77:\n        /* \"Campaign.sol\":2362:2397  uintToString(address(this).balance) */\n      tag_79\n        /* \"Campaign.sol\":2375:2396  address(this).balance */\n      selfbalance\n        /* \"Campaign.sol\":2362:2374  uintToString */\n      tag_78\n        /* \"Campaign.sol\":2362:2397  uintToString(address(this).balance) */\n      jump\t// in\n    tag_79:\n        /* \"Campaign.sol\":2409:2434  uintToString(numRequests) */\n      tag_80\n        /* \"Campaign.sol\":2422:2433  numRequests */\n      sload(0x04)\n        /* \"Campaign.sol\":2409:2421  uintToString */\n      tag_78\n        /* \"Campaign.sol\":2409:2434  uintToString(numRequests) */\n      jump\t// in\n    tag_80:\n        /* \"Campaign.sol\":2446:2474  uintToString(approversCount) */\n      tag_81\n        /* \"Campaign.sol\":2459:2473  approversCount */\n      sload(0x03)\n        /* \"Campaign.sol\":2446:2458  uintToString */\n      tag_78\n        /* \"Campaign.sol\":2446:2474  uintToString(approversCount) */\n      jump\t// in\n    tag_81:\n        /* \"Campaign.sol\":2502:2509  manager */\n      sload(0x00)\n        /* \"Campaign.sol\":2486:2510  addressToString(manager) */\n      tag_82\n      swap1\n      sub(shl(0xa0, 0x01), 0x01)\n        /* \"Campaign.sol\":2502:2509  manager */\n      and\n        /* \"Campaign.sol\":2486:2501  addressToString */\n      tag_83\n        /* \"Campaign.sol\":2486:2510  addressToString(manager) */\n      jump\t// in\n    tag_82:\n        /* \"Campaign.sol\":2298:2520  return (... */\n      swap5\n      pop\n      swap5\n      pop\n      swap5\n      pop\n      swap5\n      pop\n      swap5\n      pop\n        /* \"Campaign.sol\":2156:2527  function getSummary() public view returns (... */\n      swap1\n      swap2\n      swap3\n      swap4\n      swap5\n      jump\t// out\n        /* \"Campaign.sol\":825:868  mapping(uint256 => Request) public requests */\n    tag_44:\n      mstore(0x20, 0x05)\n      0x00\n      swap1\n      dup2\n      mstore\n      0x40\n      swap1\n      keccak256\n      dup1\n      sload\n      dup2\n      swap1\n      tag_84\n      swap1\n      tag_85\n      jump\t// in\n    tag_84:\n      dup1\n      0x1f\n      add\n      0x20\n      dup1\n      swap2\n      div\n      mul\n      0x20\n      add\n      mload(0x40)\n      swap1\n      dup2\n      add\n      0x40\n      mstore\n      dup1\n      swap3\n      swap2\n      swap1\n      dup2\n      dup2\n      mstore\n      0x20\n      add\n      dup3\n      dup1\n      sload\n      tag_86\n      swap1\n      tag_85\n      jump\t// in\n    tag_86:\n      dup1\n      iszero\n      tag_87\n      jumpi\n      dup1\n      0x1f\n      lt\n      tag_88\n      jumpi\n      0x0100\n      dup1\n      dup4\n      sload\n      div\n      mul\n      dup4\n      mstore\n      swap2\n      0x20\n      add\n      swap2\n      jump(tag_87)\n    tag_88:\n      dup3\n      add\n      swap2\n      swap1\n      0x00\n      mstore\n      keccak256(0x00, 0x20)\n      swap1\n    tag_89:\n      dup2\n      sload\n      dup2\n      mstore\n      swap1\n      0x01\n      add\n      swap1\n      0x20\n      add\n      dup1\n      dup4\n      gt\n      tag_89\n      jumpi\n      dup3\n      swap1\n      sub\n      0x1f\n      and\n      dup3\n      add\n      swap2\n    tag_87:\n      pop\n      pop\n      pop\n      pop\n      0x01\n      dup4\n      add\n      sload\n      0x02\n      dup5\n      add\n      sload\n      0x03\n      swap1\n      swap5\n      add\n      sload\n      swap3\n      swap4\n      swap1\n      swap3\n      sub(shl(0xa0, 0x01), 0x01)\n      dup3\n      and\n      swap3\n      pop\n      shl(0xa0, 0x01)\n      swap1\n      swap2\n      div\n      0xff\n      and\n      swap1\n      dup6\n      jump\t// out\n        /* \"Campaign.sol\":1248:1560  function createRequest(string memory description, uint value, address recipient) public restricted {... */\n    tag_55:\n        /* \"Campaign.sol\":929:936  manager */\n      and(sub(shl(0xa0, 0x01), 0x01), sload(0x00))\n        /* \"Campaign.sol\":915:925  msg.sender */\n      caller\n        /* \"Campaign.sol\":915:936  msg.sender == manager */\n      eq\n        /* \"Campaign.sol\":907:937  require(msg.sender == manager) */\n      tag_91\n      jumpi\n      0x00\n      dup1\n      revert\n    tag_91:\n        /* \"Campaign.sol\":1386:1397  numRequests */\n      0x04\n        /* \"Campaign.sol\":1386:1399  numRequests++ */\n      dup1\n      sload\n        /* \"Campaign.sol\":1357:1374  Request storage r */\n      0x00\n      swap2\n        /* \"Campaign.sol\":1377:1385  requests */\n      0x05\n      swap2\n        /* \"Campaign.sol\":1357:1374  Request storage r */\n      dup4\n      swap2\n      dup3\n        /* \"Campaign.sol\":1386:1399  numRequests++ */\n      tag_93\n      dup4\n      tag_94\n      jump\t// in\n    tag_93:\n      swap1\n      swap2\n      sstore\n      pop\n        /* \"Campaign.sol\":1377:1400  requests[numRequests++] */\n      dup2\n      mstore\n      0x20\n      dup2\n      add\n      swap2\n      swap1\n      swap2\n      mstore\n      0x40\n      add\n      0x00\n      keccak256\n      swap1\n      pop\n      dup1\n        /* \"Campaign.sol\":1410:1437  r.description = description */\n      tag_95\n        /* \"Campaign.sol\":1426:1437  description */\n      dup6\n        /* \"Campaign.sol\":1377:1400  requests[numRequests++] */\n      dup3\n        /* \"Campaign.sol\":1410:1437  r.description = description */\n      tag_96\n      jump\t// in\n    tag_95:\n      pop\n        /* \"Campaign.sol\":1447:1454  r.value */\n      0x01\n      dup2\n      add\n        /* \"Campaign.sol\":1447:1462  r.value = value */\n      swap3\n      swap1\n      swap3\n      sstore\n        /* \"Campaign.sol\":1472:1483  r.recipient */\n      0x02\n      dup3\n      add\n        /* \"Campaign.sol\":1472:1495  r.recipient = recipient */\n      dup1\n      sload\n      not(sub(shl(0xa8, 0x01), 0x01))\n        /* \"Campaign.sol\":1505:1523  r.complete = false */\n      and\n      sub(shl(0xa0, 0x01), 0x01)\n        /* \"Campaign.sol\":1472:1495  r.recipient = recipient */\n      swap1\n      swap3\n      and\n        /* \"Campaign.sol\":1505:1523  r.complete = false */\n      swap2\n      swap1\n      swap2\n      or\n      swap1\n      sstore\n        /* \"Campaign.sol\":1472:1483  r.recipient */\n      0x00\n        /* \"Campaign.sol\":1533:1548  r.approvalCount */\n      0x03\n      swap1\n      swap2\n      add\n        /* \"Campaign.sol\":1533:1552  r.approvalCount = 0 */\n      sstore\n      pop\n        /* \"Campaign.sol\":1248:1560  function createRequest(string memory description, uint value, address recipient) public restricted {... */\n      jump\t// out\n        /* \"Campaign.sol\":1083:1242  function contribute() public payable {... */\n    tag_61:\n        /* \"Campaign.sol\":1150:1169  minimumContribution */\n      sload(0x01)\n        /* \"Campaign.sol\":1138:1147  msg.value */\n      callvalue\n        /* \"Campaign.sol\":1138:1169  msg.value > minimumContribution */\n      gt\n        /* \"Campaign.sol\":1130:1170  require(msg.value > minimumContribution) */\n      tag_98\n      jumpi\n      0x00\n      dup1\n      revert\n    tag_98:\n        /* \"Campaign.sol\":1191:1201  msg.sender */\n      caller\n        /* \"Campaign.sol\":1181:1202  approvers[msg.sender] */\n      0x00\n      swap1\n      dup2\n      mstore\n        /* \"Campaign.sol\":1181:1190  approvers */\n      0x02\n        /* \"Campaign.sol\":1181:1202  approvers[msg.sender] */\n      0x20\n      mstore\n      0x40\n      dup2\n      keccak256\n        /* \"Campaign.sol\":1181:1209  approvers[msg.sender] = true */\n      dup1\n      sload\n      not(0xff)\n      and\n        /* \"Campaign.sol\":1205:1209  true */\n      0x01\n        /* \"Campaign.sol\":1181:1209  approvers[msg.sender] = true */\n      or\n      swap1\n      sstore\n        /* \"Campaign.sol\":1219:1233  approversCount */\n      0x03\n        /* \"Campaign.sol\":1219:1235  approversCount++ */\n      dup1\n      sload\n      swap2\n      tag_99\n      dup4\n      tag_94\n      jump\t// in\n    tag_99:\n      swap2\n      swap1\n      pop\n      sstore\n      pop\n        /* \"Campaign.sol\":1083:1242  function contribute() public payable {... */\n      jump\t// out\n        /* \"Campaign.sol\":1566:1837  function approveRequest(uint index) public {... */\n    tag_65:\n        /* \"Campaign.sol\":1619:1642  Request storage request */\n      0x00\n        /* \"Campaign.sol\":1645:1660  requests[index] */\n      dup2\n      dup2\n      mstore\n        /* \"Campaign.sol\":1645:1653  requests */\n      0x05\n        /* \"Campaign.sol\":1645:1660  requests[index] */\n      0x20\n      swap1\n      dup2\n      mstore\n      0x40\n      dup1\n      dup4\n      keccak256\n        /* \"Campaign.sol\":1689:1699  msg.sender */\n      caller\n        /* \"Campaign.sol\":1679:1700  approvers[msg.sender] */\n      dup5\n      mstore\n        /* \"Campaign.sol\":1679:1688  approvers */\n      0x02\n        /* \"Campaign.sol\":1679:1700  approvers[msg.sender] */\n      swap1\n      swap3\n      mstore\n      swap1\n      swap2\n      keccak256\n      sload\n      0xff\n      and\n        /* \"Campaign.sol\":1671:1701  require(approvers[msg.sender]) */\n      tag_101\n      jumpi\n      0x00\n      dup1\n      revert\n    tag_101:\n        /* \"Campaign.sol\":1738:1748  msg.sender */\n      caller\n        /* \"Campaign.sol\":1720:1749  request.approvals[msg.sender] */\n      0x00\n      swap1\n      dup2\n      mstore\n        /* \"Campaign.sol\":1720:1737  request.approvals */\n      0x04\n      dup3\n      add\n        /* \"Campaign.sol\":1720:1749  request.approvals[msg.sender] */\n      0x20\n      mstore\n      0x40\n      swap1\n      keccak256\n      sload\n      0xff\n      and\n        /* \"Campaign.sol\":1719:1749  !request.approvals[msg.sender] */\n      iszero\n        /* \"Campaign.sol\":1711:1750  require(!request.approvals[msg.sender]) */\n      tag_102\n      jumpi\n      0x00\n      dup1\n      revert\n    tag_102:\n        /* \"Campaign.sol\":1779:1789  msg.sender */\n      caller\n        /* \"Campaign.sol\":1761:1790  request.approvals[msg.sender] */\n      0x00\n      swap1\n      dup2\n      mstore\n        /* \"Campaign.sol\":1761:1778  request.approvals */\n      0x04\n      dup3\n      add\n        /* \"Campaign.sol\":1761:1790  request.approvals[msg.sender] */\n      0x20\n      mstore\n      0x40\n      dup2\n      keccak256\n        /* \"Campaign.sol\":1761:1797  request.approvals[msg.sender] = true */\n      dup1\n      sload\n      not(0xff)\n      and\n        /* \"Campaign.sol\":1793:1797  true */\n      0x01\n        /* \"Campaign.sol\":1761:1797  request.approvals[msg.sender] = true */\n      or\n      swap1\n      sstore\n        /* \"Campaign.sol\":1807:1828  request.approvalCount */\n      0x03\n      dup3\n      add\n        /* \"Campaign.sol\":1807:1830  request.approvalCount++ */\n      dup1\n      sload\n      swap2\n      tag_103\n      dup4\n      tag_94\n      jump\t// in\n    tag_103:\n      swap2\n      swap1\n      pop\n      sstore\n      pop\n        /* \"Campaign.sol\":1609:1837  {... */\n      pop\n        /* \"Campaign.sol\":1566:1837  function approveRequest(uint index) public {... */\n      pop\n      jump\t// out\n        /* \"Campaign.sol\":2633:3152  function uintToString(uint256 value) internal pure returns (string memory) {... */\n    tag_78:\n        /* \"Campaign.sol\":2693:2706  string memory */\n      0x60\n        /* \"Campaign.sol\":2722:2727  value */\n      dup2\n        /* \"Campaign.sol\":2731:2732  0 */\n      0x00\n        /* \"Campaign.sol\":2722:2732  value == 0 */\n      sub\n        /* \"Campaign.sol\":2718:2769  if (value == 0) {... */\n      tag_105\n      jumpi\n      pop\n      pop\n        /* \"Campaign.sol\":2748:2758  return \"0\" */\n      0x40\n      dup1\n      mload\n      dup1\n      dup3\n      add\n      swap1\n      swap2\n      mstore\n      0x01\n      dup2\n      mstore\n      shl(0xfc, 0x03)\n      0x20\n      dup3\n      add\n      mstore\n      swap1\n        /* \"Campaign.sol\":2633:3152  function uintToString(uint256 value) internal pure returns (string memory) {... */\n      jump\t// out\n        /* \"Campaign.sol\":2718:2769  if (value == 0) {... */\n    tag_105:\n        /* \"Campaign.sol\":2795:2800  value */\n      dup2\n        /* \"Campaign.sol\":2780:2792  uint256 temp */\n      0x00\n        /* \"Campaign.sol\":2836:2911  while (temp != 0) {... */\n    tag_106:\n        /* \"Campaign.sol\":2843:2852  temp != 0 */\n      dup2\n      iszero\n        /* \"Campaign.sol\":2836:2911  while (temp != 0) {... */\n      tag_107\n      jumpi\n        /* \"Campaign.sol\":2868:2876  digits++ */\n      dup1\n      tag_108\n      dup2\n      tag_94\n      jump\t// in\n    tag_108:\n      swap2\n      pop\n        /* \"Campaign.sol\":2890:2900  temp /= 10 */\n      tag_109\n      swap1\n      pop\n        /* \"Campaign.sol\":2898:2900  10 */\n      0x0a\n        /* \"Campaign.sol\":2890:2900  temp /= 10 */\n      dup4\n      tag_70\n      jump\t// in\n    tag_109:\n      swap2\n      pop\n        /* \"Campaign.sol\":2836:2911  while (temp != 0) {... */\n      jump(tag_106)\n    tag_107:\n        /* \"Campaign.sol\":2922:2941  bytes memory buffer */\n      0x00\n        /* \"Campaign.sol\":2954:2960  digits */\n      dup2\n        /* \"Campaign.sol\":2944:2961  new bytes(digits) */\n      0xffffffffffffffff\n      dup2\n      gt\n      iszero\n      tag_111\n      jumpi\n      tag_111\n      tag_112\n      jump\t// in\n    tag_111:\n      mload(0x40)\n      swap1\n      dup1\n      dup3\n      mstore\n      dup1\n      0x1f\n      add\n      not(0x1f)\n      and\n      0x20\n      add\n      dup3\n      add\n      0x40\n      mstore\n      dup1\n      iszero\n      tag_113\n      jumpi\n      0x20\n      dup3\n      add\n      dup2\n      dup1\n      calldatasize\n      dup4\n      calldatacopy\n      add\n      swap1\n      pop\n    tag_113:\n      pop\n        /* \"Campaign.sol\":2922:2961  bytes memory buffer = new bytes(digits) */\n      swap1\n      pop\n        /* \"Campaign.sol\":2973:3113  while (value != 0) {... */\n    tag_114:\n        /* \"Campaign.sol\":2980:2990  value != 0 */\n      dup5\n      iszero\n        /* \"Campaign.sol\":2973:3113  while (value != 0) {... */\n      tag_115\n      jumpi\n        /* \"Campaign.sol\":3006:3014  digits-- */\n      dup2\n      tag_116\n      dup2\n      tag_117\n      jump\t// in\n    tag_116:\n      swap3\n      pop\n        /* \"Campaign.sol\":3064:3074  value % 10 */\n      tag_118\n      swap1\n      pop\n        /* \"Campaign.sol\":3072:3074  10 */\n      0x0a\n        /* \"Campaign.sol\":3064:3069  value */\n      dup7\n        /* \"Campaign.sol\":3064:3074  value % 10 */\n      tag_119\n      jump\t// in\n    tag_118:\n        /* \"Campaign.sol\":3058:3075  48 + (value % 10) */\n      tag_120\n      swap1\n        /* \"Campaign.sol\":3058:3060  48 */\n      0x30\n        /* \"Campaign.sol\":3058:3075  48 + (value % 10) */\n      tag_121\n      jump\t// in\n    tag_120:\n        /* \"Campaign.sol\":3045:3077  bytes1(uint8(48 + (value % 10))) */\n      0xf8\n      shl\n        /* \"Campaign.sol\":3028:3034  buffer */\n      dup2\n        /* \"Campaign.sol\":3035:3041  digits */\n      dup4\n        /* \"Campaign.sol\":3028:3042  buffer[digits] */\n      dup2\n      mload\n      dup2\n      lt\n      tag_123\n      jumpi\n      tag_123\n      tag_124\n      jump\t// in\n    tag_123:\n      0x20\n      add\n      add\n        /* \"Campaign.sol\":3028:3077  buffer[digits] = bytes1(uint8(48 + (value % 10))) */\n      swap1\n      not(sub(shl(0xf8, 0x01), 0x01))\n      and\n      swap1\n      dup2\n      0x00\n      byte\n      swap1\n      mstore8\n      pop\n        /* \"Campaign.sol\":3091:3102  value /= 10 */\n      tag_125\n        /* \"Campaign.sol\":3100:3102  10 */\n      0x0a\n        /* \"Campaign.sol\":3091:3102  value /= 10 */\n      dup7\n      tag_70\n      jump\t// in\n    tag_125:\n      swap5\n      pop\n        /* \"Campaign.sol\":2973:3113  while (value != 0) {... */\n      jump(tag_114)\n    tag_115:\n        /* \"Campaign.sol\":3138:3144  buffer */\n      swap5\n        /* \"Campaign.sol\":2633:3152  function uintToString(uint256 value) internal pure returns (string memory) {... */\n      swap4\n      pop\n      pop\n      pop\n      pop\n      jump\t// out\n        /* \"Campaign.sol\":3158:3684  function addressToString(address _addr) internal pure returns (string memory) {... */\n    tag_83:\n        /* \"Campaign.sol\":3304:3346  bytes memory alphabet = \"0123456789abcdef\" */\n      0x40\n      dup1\n      mload\n      dup1\n      dup3\n      add\n      dup3\n      mstore\n      0x10\n      dup2\n      mstore\n      shl(0x81, 0x181899199a1a9b1b9c1cb0b131b232b3)\n      0x20\n      dup3\n      add\n      mstore\n        /* \"Campaign.sol\":3385:3398  new bytes(42) */\n      dup2\n      mload\n        /* \"Campaign.sol\":3395:3397  42 */\n      0x2a\n        /* \"Campaign.sol\":3385:3398  new bytes(42) */\n      dup1\n      dup3\n      mstore\n        /* \"Campaign.sol\":3221:3234  string memory */\n      0x60\n        /* \"Campaign.sol\":3385:3398  new bytes(42) */\n      dup3\n      dup2\n      add\n      swap1\n      swap5\n      mstore\n      sub(shl(0xa0, 0x01), 0x01)\n        /* \"Campaign.sol\":3270:3293  uint256(uint160(_addr)) */\n      dup6\n      and\n      swap3\n        /* \"Campaign.sol\":3304:3346  bytes memory alphabet = \"0123456789abcdef\" */\n      swap2\n      0x00\n      swap2\n        /* \"Campaign.sol\":3385:3398  new bytes(42) */\n      0x20\n      dup3\n      add\n      dup2\n      dup1\n      calldatasize\n      dup4\n      calldatacopy\n      add\n      swap1\n      pop\n      pop\n        /* \"Campaign.sol\":3366:3398  bytes memory str = new bytes(42) */\n      swap1\n      pop\n      shl(0xfc, 0x03)\n        /* \"Campaign.sol\":3408:3411  str */\n      dup2\n        /* \"Campaign.sol\":3412:3413  0 */\n      0x00\n        /* \"Campaign.sol\":3408:3414  str[0] */\n      dup2\n      mload\n      dup2\n      lt\n      tag_131\n      jumpi\n      tag_131\n      tag_124\n      jump\t// in\n    tag_131:\n      0x20\n      add\n      add\n        /* \"Campaign.sol\":3408:3420  str[0] = '0' */\n      swap1\n      not(sub(shl(0xf8, 0x01), 0x01))\n      and\n      swap1\n      dup2\n      0x00\n      byte\n      swap1\n      mstore8\n      pop\n      shl(0xfb, 0x0f)\n        /* \"Campaign.sol\":3430:3433  str */\n      dup2\n        /* \"Campaign.sol\":3434:3435  1 */\n      0x01\n        /* \"Campaign.sol\":3430:3436  str[1] */\n      dup2\n      mload\n      dup2\n      lt\n      tag_133\n      jumpi\n      tag_133\n      tag_124\n      jump\t// in\n    tag_133:\n      0x20\n      add\n      add\n        /* \"Campaign.sol\":3430:3442  str[1] = 'x' */\n      swap1\n      not(sub(shl(0xf8, 0x01), 0x01))\n      and\n      swap1\n      dup2\n      0x00\n      byte\n      swap1\n      mstore8\n      pop\n        /* \"Campaign.sol\":3467:3476  uint256 i */\n      0x00\n        /* \"Campaign.sol\":3462:3640  for (uint256 i = 0; i < 20; i++) {... */\n    tag_134:\n        /* \"Campaign.sol\":3486:3488  20 */\n      0x14\n        /* \"Campaign.sol\":3482:3483  i */\n      dup2\n        /* \"Campaign.sol\":3482:3488  i < 20 */\n      lt\n        /* \"Campaign.sol\":3462:3640  for (uint256 i = 0; i < 20; i++) {... */\n      iszero\n      tag_135\n      jumpi\n        /* \"Campaign.sol\":3526:3534  alphabet */\n      dup3\n        /* \"Campaign.sol\":3558:3559  4 */\n      0x04\n        /* \"Campaign.sol\":3541:3546  value */\n      dup6\n        /* \"Campaign.sol\":3547:3553  i + 12 */\n      tag_137\n        /* \"Campaign.sol\":3547:3548  i */\n      dup5\n        /* \"Campaign.sol\":3551:3553  12 */\n      0x0c\n        /* \"Campaign.sol\":3547:3553  i + 12 */\n      tag_121\n      jump\t// in\n    tag_137:\n        /* \"Campaign.sol\":3541:3554  value[i + 12] */\n      0x20\n      dup2\n      lt\n      tag_139\n      jumpi\n      tag_139\n      tag_124\n      jump\t// in\n    tag_139:\n      byte\n      0xf8\n      shl\n      sub(shl(0xf8, 0x01), 0x01)\n        /* \"Campaign.sol\":3541:3559  value[i + 12] >> 4 */\n      not\n      and\n      swap1\n      shr\n        /* \"Campaign.sol\":3535:3560  uint8(value[i + 12] >> 4) */\n      0xf8\n      shr\n        /* \"Campaign.sol\":3526:3561  alphabet[uint8(value[i + 12] >> 4)] */\n      0xff\n      and\n      dup2\n      mload\n      dup2\n      lt\n      tag_141\n      jumpi\n      tag_141\n      tag_124\n      jump\t// in\n    tag_141:\n      add\n      0x20\n      add\n      mload\n      not(sub(shl(0xf8, 0x01), 0x01))\n      and\n        /* \"Campaign.sol\":3509:3512  str */\n      dup3\n        /* \"Campaign.sol\":3517:3522  i * 2 */\n      tag_142\n        /* \"Campaign.sol\":3517:3518  i */\n      dup4\n        /* \"Campaign.sol\":3521:3522  2 */\n      0x02\n        /* \"Campaign.sol\":3517:3522  i * 2 */\n      tag_143\n      jump\t// in\n    tag_142:\n        /* \"Campaign.sol\":3513:3522  2 + i * 2 */\n      tag_144\n      swap1\n        /* \"Campaign.sol\":3513:3514  2 */\n      0x02\n        /* \"Campaign.sol\":3513:3522  2 + i * 2 */\n      tag_121\n      jump\t// in\n    tag_144:\n        /* \"Campaign.sol\":3509:3523  str[2 + i * 2] */\n      dup2\n      mload\n      dup2\n      lt\n      tag_146\n      jumpi\n      tag_146\n      tag_124\n      jump\t// in\n    tag_146:\n      0x20\n      add\n      add\n        /* \"Campaign.sol\":3509:3561  str[2 + i * 2] = alphabet[uint8(value[i + 12] >> 4)] */\n      swap1\n      not(sub(shl(0xf8, 0x01), 0x01))\n      and\n      swap1\n      dup2\n      0x00\n      byte\n      swap1\n      mstore8\n      pop\n        /* \"Campaign.sol\":3592:3600  alphabet */\n      dup3\n        /* \"Campaign.sol\":3607:3612  value */\n      dup5\n        /* \"Campaign.sol\":3613:3619  i + 12 */\n      tag_147\n        /* \"Campaign.sol\":3613:3614  i */\n      dup4\n        /* \"Campaign.sol\":3617:3619  12 */\n      0x0c\n        /* \"Campaign.sol\":3613:3619  i + 12 */\n      tag_121\n      jump\t// in\n    tag_147:\n        /* \"Campaign.sol\":3607:3620  value[i + 12] */\n      0x20\n      dup2\n      lt\n      tag_149\n      jumpi\n      tag_149\n      tag_124\n      jump\t// in\n    tag_149:\n        /* \"Campaign.sol\":3592:3629  alphabet[uint8(value[i + 12] & 0x0f)] */\n      dup3\n      mload\n        /* \"Campaign.sol\":3607:3620  value[i + 12] */\n      swap2\n      swap1\n      byte\n        /* \"Campaign.sol\":3623:3627  0x0f */\n      0x0f\n        /* \"Campaign.sol\":3601:3628  uint8(value[i + 12] & 0x0f) */\n      and\n      swap1\n        /* \"Campaign.sol\":3592:3629  alphabet[uint8(value[i + 12] & 0x0f)] */\n      dup2\n      lt\n      tag_151\n      jumpi\n      tag_151\n      tag_124\n      jump\t// in\n    tag_151:\n      add\n      0x20\n      add\n      mload\n      not(sub(shl(0xf8, 0x01), 0x01))\n      and\n        /* \"Campaign.sol\":3575:3578  str */\n      dup3\n        /* \"Campaign.sol\":3583:3588  i * 2 */\n      tag_152\n        /* \"Campaign.sol\":3583:3584  i */\n      dup4\n        /* \"Campaign.sol\":3587:3588  2 */\n      0x02\n        /* \"Campaign.sol\":3583:3588  i * 2 */\n      tag_143\n      jump\t// in\n    tag_152:\n        /* \"Campaign.sol\":3579:3588  3 + i * 2 */\n      tag_153\n      swap1\n        /* \"Campaign.sol\":3579:3580  3 */\n      0x03\n        /* \"Campaign.sol\":3579:3588  3 + i * 2 */\n      tag_121\n      jump\t// in\n    tag_153:\n        /* \"Campaign.sol\":3575:3589  str[3 + i * 2] */\n      dup2\n      mload\n      dup2\n      lt\n      tag_155\n      jumpi\n      tag_155\n      tag_124\n      jump\t// in\n    tag_155:\n      0x20\n      add\n      add\n        /* \"Campaign.sol\":3575:3629  str[3 + i * 2] = alphabet[uint8(value[i + 12] & 0x0f)] */\n      swap1\n      not(sub(shl(0xf8, 0x01), 0x01))\n      and\n      swap1\n      dup2\n      0x00\n      byte\n      swap1\n      mstore8\n      pop\n        /* \"Campaign.sol\":3490:3493  i++ */\n      0x01\n      add\n        /* \"Campaign.sol\":3462:3640  for (uint256 i = 0; i < 20; i++) {... */\n      jump(tag_134)\n    tag_135:\n      pop\n        /* \"Campaign.sol\":3673:3676  str */\n      swap5\n        /* \"Campaign.sol\":3158:3684  function addressToString(address _addr) internal pure returns (string memory) {... */\n      swap4\n      pop\n      pop\n      pop\n      pop\n      jump\t// out\n        /* \"#utility.yul\":14:194   */\n    tag_17:\n        /* \"#utility.yul\":73:79   */\n      0x00\n        /* \"#utility.yul\":126:128   */\n      0x20\n        /* \"#utility.yul\":114:123   */\n      dup3\n        /* \"#utility.yul\":105:112   */\n      dup5\n        /* \"#utility.yul\":101:124   */\n      sub\n        /* \"#utility.yul\":97:129   */\n      slt\n        /* \"#utility.yul\":94:146   */\n      iszero\n      tag_165\n      jumpi\n        /* \"#utility.yul\":142:143   */\n      0x00\n        /* \"#utility.yul\":139:140   */\n      dup1\n        /* \"#utility.yul\":132:144   */\n      revert\n        /* \"#utility.yul\":94:146   */\n    tag_165:\n      pop\n        /* \"#utility.yul\":165:188   */\n      calldataload\n      swap2\n        /* \"#utility.yul\":14:194   */\n      swap1\n      pop\n      jump\t// out\n        /* \"#utility.yul\":199:372   */\n    tag_156:\n        /* \"#utility.yul\":267:287   */\n      dup1\n      calldataload\n      sub(shl(0xa0, 0x01), 0x01)\n        /* \"#utility.yul\":316:347   */\n      dup2\n      and\n        /* \"#utility.yul\":306:348   */\n      dup2\n      eq\n        /* \"#utility.yul\":296:366   */\n      tag_167\n      jumpi\n        /* \"#utility.yul\":362:363   */\n      0x00\n        /* \"#utility.yul\":359:360   */\n      dup1\n        /* \"#utility.yul\":352:364   */\n      revert\n        /* \"#utility.yul\":296:366   */\n    tag_167:\n        /* \"#utility.yul\":199:372   */\n      swap2\n      swap1\n      pop\n      jump\t// out\n        /* \"#utility.yul\":377:563   */\n    tag_22:\n        /* \"#utility.yul\":436:442   */\n      0x00\n        /* \"#utility.yul\":489:491   */\n      0x20\n        /* \"#utility.yul\":477:486   */\n      dup3\n        /* \"#utility.yul\":468:475   */\n      dup5\n        /* \"#utility.yul\":464:487   */\n      sub\n        /* \"#utility.yul\":460:492   */\n      slt\n        /* \"#utility.yul\":457:509   */\n      iszero\n      tag_169\n      jumpi\n        /* \"#utility.yul\":505:506   */\n      0x00\n        /* \"#utility.yul\":502:503   */\n      dup1\n        /* \"#utility.yul\":495:507   */\n      revert\n        /* \"#utility.yul\":457:509   */\n    tag_169:\n        /* \"#utility.yul\":528:557   */\n      tag_170\n        /* \"#utility.yul\":547:556   */\n      dup3\n        /* \"#utility.yul\":528:557   */\n      tag_156\n      jump\t// in\n    tag_170:\n        /* \"#utility.yul\":518:557   */\n      swap4\n        /* \"#utility.yul\":377:563   */\n      swap3\n      pop\n      pop\n      pop\n      jump\t// out\n        /* \"#utility.yul\":942:1365   */\n    tag_157:\n        /* \"#utility.yul\":984:987   */\n      0x00\n        /* \"#utility.yul\":1022:1027   */\n      dup2\n        /* \"#utility.yul\":1016:1028   */\n      mload\n        /* \"#utility.yul\":1049:1055   */\n      dup1\n        /* \"#utility.yul\":1044:1047   */\n      dup5\n        /* \"#utility.yul\":1037:1056   */\n      mstore\n        /* \"#utility.yul\":1074:1075   */\n      0x00\n        /* \"#utility.yul\":1084:1246   */\n    tag_174:\n        /* \"#utility.yul\":1098:1104   */\n      dup2\n        /* \"#utility.yul\":1095:1096   */\n      dup2\n        /* \"#utility.yul\":1092:1105   */\n      lt\n        /* \"#utility.yul\":1084:1246   */\n      iszero\n      tag_176\n      jumpi\n        /* \"#utility.yul\":1160:1164   */\n      0x20\n        /* \"#utility.yul\":1216:1229   */\n      dup2\n      dup6\n      add\n        /* \"#utility.yul\":1212:1234   */\n      dup2\n      add\n        /* \"#utility.yul\":1206:1235   */\n      mload\n        /* \"#utility.yul\":1188:1199   */\n      dup7\n      dup4\n      add\n        /* \"#utility.yul\":1184:1204   */\n      dup3\n      add\n        /* \"#utility.yul\":1177:1236   */\n      mstore\n        /* \"#utility.yul\":1113:1125   */\n      add\n        /* \"#utility.yul\":1084:1246   */\n      jump(tag_174)\n    tag_176:\n        /* \"#utility.yul\":1088:1091   */\n      pop\n        /* \"#utility.yul\":1291:1292   */\n      0x00\n        /* \"#utility.yul\":1284:1288   */\n      0x20\n        /* \"#utility.yul\":1275:1281   */\n      dup3\n        /* \"#utility.yul\":1270:1273   */\n      dup7\n        /* \"#utility.yul\":1266:1282   */\n      add\n        /* \"#utility.yul\":1262:1289   */\n      add\n        /* \"#utility.yul\":1255:1293   */\n      mstore\n        /* \"#utility.yul\":1354:1358   */\n      0x20\n        /* \"#utility.yul\":1347:1349   */\n      0x1f\n        /* \"#utility.yul\":1343:1350   */\n      not\n        /* \"#utility.yul\":1338:1340   */\n      0x1f\n        /* \"#utility.yul\":1330:1336   */\n      dup4\n        /* \"#utility.yul\":1326:1341   */\n      add\n        /* \"#utility.yul\":1322:1351   */\n      and\n        /* \"#utility.yul\":1317:1320   */\n      dup6\n        /* \"#utility.yul\":1313:1352   */\n      add\n        /* \"#utility.yul\":1309:1359   */\n      add\n        /* \"#utility.yul\":1302:1359   */\n      swap2\n      pop\n      pop\n        /* \"#utility.yul\":942:1365   */\n      swap3\n      swap2\n      pop\n      pop\n      jump\t// out\n        /* \"#utility.yul\":1370:2245   */\n    tag_35:\n        /* \"#utility.yul\":1711:1714   */\n      0xa0\n        /* \"#utility.yul\":1700:1709   */\n      dup2\n        /* \"#utility.yul\":1693:1715   */\n      mstore\n        /* \"#utility.yul\":1674:1678   */\n      0x00\n        /* \"#utility.yul\":1738:1784   */\n      tag_178\n        /* \"#utility.yul\":1779:1782   */\n      0xa0\n        /* \"#utility.yul\":1768:1777   */\n      dup4\n        /* \"#utility.yul\":1764:1783   */\n      add\n        /* \"#utility.yul\":1756:1762   */\n      dup9\n        /* \"#utility.yul\":1738:1784   */\n      tag_157\n      jump\t// in\n    tag_178:\n        /* \"#utility.yul\":1832:1841   */\n      dup3\n        /* \"#utility.yul\":1824:1830   */\n      dup2\n        /* \"#utility.yul\":1820:1842   */\n      sub\n        /* \"#utility.yul\":1815:1817   */\n      0x20\n        /* \"#utility.yul\":1804:1813   */\n      dup5\n        /* \"#utility.yul\":1800:1818   */\n      add\n        /* \"#utility.yul\":1793:1843   */\n      mstore\n        /* \"#utility.yul\":1866:1899   */\n      tag_179\n        /* \"#utility.yul\":1892:1898   */\n      dup2\n        /* \"#utility.yul\":1884:1890   */\n      dup9\n        /* \"#utility.yul\":1866:1899   */\n      tag_157\n      jump\t// in\n    tag_179:\n        /* \"#utility.yul\":1852:1899   */\n      swap1\n      pop\n        /* \"#utility.yul\":1947:1956   */\n      dup3\n        /* \"#utility.yul\":1939:1945   */\n      dup2\n        /* \"#utility.yul\":1935:1957   */\n      sub\n        /* \"#utility.yul\":1930:1932   */\n      0x40\n        /* \"#utility.yul\":1919:1928   */\n      dup5\n        /* \"#utility.yul\":1915:1933   */\n      add\n        /* \"#utility.yul\":1908:1958   */\n      mstore\n        /* \"#utility.yul\":1981:2014   */\n      tag_180\n        /* \"#utility.yul\":2007:2013   */\n      dup2\n        /* \"#utility.yul\":1999:2005   */\n      dup8\n        /* \"#utility.yul\":1981:2014   */\n      tag_157\n      jump\t// in\n    tag_180:\n        /* \"#utility.yul\":1967:2014   */\n      swap1\n      pop\n        /* \"#utility.yul\":2062:2071   */\n      dup3\n        /* \"#utility.yul\":2054:2060   */\n      dup2\n        /* \"#utility.yul\":2050:2072   */\n      sub\n        /* \"#utility.yul\":2045:2047   */\n      0x60\n        /* \"#utility.yul\":2034:2043   */\n      dup5\n        /* \"#utility.yul\":2030:2048   */\n      add\n        /* \"#utility.yul\":2023:2073   */\n      mstore\n        /* \"#utility.yul\":2096:2129   */\n      tag_181\n        /* \"#utility.yul\":2122:2128   */\n      dup2\n        /* \"#utility.yul\":2114:2120   */\n      dup7\n        /* \"#utility.yul\":2096:2129   */\n      tag_157\n      jump\t// in\n    tag_181:\n        /* \"#utility.yul\":2082:2129   */\n      swap1\n      pop\n        /* \"#utility.yul\":2178:2187   */\n      dup3\n        /* \"#utility.yul\":2170:2176   */\n      dup2\n        /* \"#utility.yul\":2166:2188   */\n      sub\n        /* \"#utility.yul\":2160:2163   */\n      0x80\n        /* \"#utility.yul\":2149:2158   */\n      dup5\n        /* \"#utility.yul\":2145:2164   */\n      add\n        /* \"#utility.yul\":2138:2189   */\n      mstore\n        /* \"#utility.yul\":2206:2239   */\n      tag_182\n        /* \"#utility.yul\":2232:2238   */\n      dup2\n        /* \"#utility.yul\":2224:2230   */\n      dup6\n        /* \"#utility.yul\":2206:2239   */\n      tag_157\n      jump\t// in\n    tag_182:\n        /* \"#utility.yul\":2198:2239   */\n      swap9\n        /* \"#utility.yul\":1370:2245   */\n      swap8\n      pop\n      pop\n      pop\n      pop\n      pop\n      pop\n      pop\n      pop\n      jump\t// out\n        /* \"#utility.yul\":2458:3001   */\n    tag_46:\n        /* \"#utility.yul\":2713:2716   */\n      0xa0\n        /* \"#utility.yul\":2702:2711   */\n      dup2\n        /* \"#utility.yul\":2695:2717   */\n      mstore\n        /* \"#utility.yul\":2676:2680   */\n      0x00\n        /* \"#utility.yul\":2734:2780   */\n      tag_185\n        /* \"#utility.yul\":2775:2778   */\n      0xa0\n        /* \"#utility.yul\":2764:2773   */\n      dup4\n        /* \"#utility.yul\":2760:2779   */\n      add\n        /* \"#utility.yul\":2752:2758   */\n      dup9\n        /* \"#utility.yul\":2734:2780   */\n      tag_157\n      jump\t// in\n    tag_185:\n        /* \"#utility.yul\":2811:2813   */\n      0x20\n        /* \"#utility.yul\":2796:2814   */\n      dup4\n      add\n        /* \"#utility.yul\":2789:2823   */\n      swap7\n      swap1\n      swap7\n      mstore\n      pop\n      sub(shl(0xa0, 0x01), 0x01)\n        /* \"#utility.yul\":2859:2891   */\n      swap4\n      swap1\n      swap4\n      and\n        /* \"#utility.yul\":2854:2856   */\n      0x40\n        /* \"#utility.yul\":2839:2857   */\n      dup5\n      add\n        /* \"#utility.yul\":2832:2892   */\n      mstore\n        /* \"#utility.yul\":2935:2949   */\n      swap1\n      iszero\n        /* \"#utility.yul\":2928:2950   */\n      iszero\n        /* \"#utility.yul\":2923:2925   */\n      0x60\n        /* \"#utility.yul\":2908:2926   */\n      dup4\n      add\n        /* \"#utility.yul\":2901:2951   */\n      mstore\n        /* \"#utility.yul\":2982:2985   */\n      0x80\n        /* \"#utility.yul\":2967:2986   */\n      swap1\n      swap2\n      add\n        /* \"#utility.yul\":2960:2995   */\n      mstore\n        /* \"#utility.yul\":2726:2780   */\n      swap2\n        /* \"#utility.yul\":2458:3001   */\n      swap1\n      pop\n      jump\t// out\n        /* \"#utility.yul\":3006:3133   */\n    tag_112:\n        /* \"#utility.yul\":3067:3077   */\n      0x4e487b71\n        /* \"#utility.yul\":3062:3065   */\n      0xe0\n        /* \"#utility.yul\":3058:3078   */\n      shl\n        /* \"#utility.yul\":3055:3056   */\n      0x00\n        /* \"#utility.yul\":3048:3079   */\n      mstore\n        /* \"#utility.yul\":3098:3102   */\n      0x41\n        /* \"#utility.yul\":3095:3096   */\n      0x04\n        /* \"#utility.yul\":3088:3103   */\n      mstore\n        /* \"#utility.yul\":3122:3126   */\n      0x24\n        /* \"#utility.yul\":3119:3120   */\n      0x00\n        /* \"#utility.yul\":3112:3127   */\n      revert\n        /* \"#utility.yul\":3138:4212   */\n    tag_54:\n        /* \"#utility.yul\":3225:3231   */\n      0x00\n        /* \"#utility.yul\":3233:3239   */\n      dup1\n        /* \"#utility.yul\":3241:3247   */\n      0x00\n        /* \"#utility.yul\":3294:3296   */\n      0x60\n        /* \"#utility.yul\":3282:3291   */\n      dup5\n        /* \"#utility.yul\":3273:3280   */\n      dup7\n        /* \"#utility.yul\":3269:3292   */\n      sub\n        /* \"#utility.yul\":3265:3297   */\n      slt\n        /* \"#utility.yul\":3262:3314   */\n      iszero\n      tag_188\n      jumpi\n        /* \"#utility.yul\":3310:3311   */\n      0x00\n        /* \"#utility.yul\":3307:3308   */\n      dup1\n        /* \"#utility.yul\":3300:3312   */\n      revert\n        /* \"#utility.yul\":3262:3314   */\n    tag_188:\n        /* \"#utility.yul\":3350:3359   */\n      dup4\n        /* \"#utility.yul\":3337:3360   */\n      calldataload\n        /* \"#utility.yul\":3379:3397   */\n      0xffffffffffffffff\n        /* \"#utility.yul\":3420:3422   */\n      dup1\n        /* \"#utility.yul\":3412:3418   */\n      dup3\n        /* \"#utility.yul\":3409:3423   */\n      gt\n        /* \"#utility.yul\":3406:3440   */\n      iszero\n      tag_189\n      jumpi\n        /* \"#utility.yul\":3436:3437   */\n      0x00\n        /* \"#utility.yul\":3433:3434   */\n      dup1\n        /* \"#utility.yul\":3426:3438   */\n      revert\n        /* \"#utility.yul\":3406:3440   */\n    tag_189:\n        /* \"#utility.yul\":3474:3480   */\n      dup2\n        /* \"#utility.yul\":3463:3472   */\n      dup7\n        /* \"#utility.yul\":3459:3481   */\n      add\n        /* \"#utility.yul\":3449:3481   */\n      swap2\n      pop\n        /* \"#utility.yul\":3519:3526   */\n      dup7\n        /* \"#utility.yul\":3512:3516   */\n      0x1f\n        /* \"#utility.yul\":3508:3510   */\n      dup4\n        /* \"#utility.yul\":3504:3517   */\n      add\n        /* \"#utility.yul\":3500:3527   */\n      slt\n        /* \"#utility.yul\":3490:3545   */\n      tag_190\n      jumpi\n        /* \"#utility.yul\":3541:3542   */\n      0x00\n        /* \"#utility.yul\":3538:3539   */\n      dup1\n        /* \"#utility.yul\":3531:3543   */\n      revert\n        /* \"#utility.yul\":3490:3545   */\n    tag_190:\n        /* \"#utility.yul\":3577:3579   */\n      dup2\n        /* \"#utility.yul\":3564:3580   */\n      calldataload\n        /* \"#utility.yul\":3599:3601   */\n      dup2\n        /* \"#utility.yul\":3595:3597   */\n      dup2\n        /* \"#utility.yul\":3592:3602   */\n      gt\n        /* \"#utility.yul\":3589:3625   */\n      iszero\n      tag_192\n      jumpi\n        /* \"#utility.yul\":3605:3623   */\n      tag_192\n      tag_112\n      jump\t// in\n    tag_192:\n        /* \"#utility.yul\":3680:3682   */\n      0x40\n        /* \"#utility.yul\":3674:3683   */\n      mload\n        /* \"#utility.yul\":3648:3650   */\n      0x1f\n        /* \"#utility.yul\":3734:3747   */\n      dup3\n      add\n      not(0x1f)\n        /* \"#utility.yul\":3730:3752   */\n      swap1\n      dup2\n      and\n        /* \"#utility.yul\":3754:3756   */\n      0x3f\n        /* \"#utility.yul\":3726:3757   */\n      add\n        /* \"#utility.yul\":3722:3762   */\n      and\n        /* \"#utility.yul\":3710:3763   */\n      dup2\n      add\n      swap1\n        /* \"#utility.yul\":3778:3796   */\n      dup4\n      dup3\n      gt\n        /* \"#utility.yul\":3798:3820   */\n      dup2\n      dup4\n      lt\n        /* \"#utility.yul\":3775:3821   */\n      or\n        /* \"#utility.yul\":3772:3844   */\n      iszero\n      tag_194\n      jumpi\n        /* \"#utility.yul\":3824:3842   */\n      tag_194\n      tag_112\n      jump\t// in\n    tag_194:\n        /* \"#utility.yul\":3864:3874   */\n      dup2\n        /* \"#utility.yul\":3860:3862   */\n      0x40\n        /* \"#utility.yul\":3853:3875   */\n      mstore\n        /* \"#utility.yul\":3899:3901   */\n      dup3\n        /* \"#utility.yul\":3891:3897   */\n      dup2\n        /* \"#utility.yul\":3884:3902   */\n      mstore\n        /* \"#utility.yul\":3941:3948   */\n      dup10\n        /* \"#utility.yul\":3934:3938   */\n      0x20\n        /* \"#utility.yul\":3929:3931   */\n      dup5\n        /* \"#utility.yul\":3925:3927   */\n      dup8\n        /* \"#utility.yul\":3921:3932   */\n      add\n        /* \"#utility.yul\":3917:3939   */\n      add\n        /* \"#utility.yul\":3914:3949   */\n      gt\n        /* \"#utility.yul\":3911:3966   */\n      iszero\n      tag_195\n      jumpi\n        /* \"#utility.yul\":3962:3963   */\n      0x00\n        /* \"#utility.yul\":3959:3960   */\n      dup1\n        /* \"#utility.yul\":3952:3964   */\n      revert\n        /* \"#utility.yul\":3911:3966   */\n    tag_195:\n        /* \"#utility.yul\":4022:4024   */\n      dup3\n        /* \"#utility.yul\":4015:4019   */\n      0x20\n        /* \"#utility.yul\":4011:4013   */\n      dup7\n        /* \"#utility.yul\":4007:4020   */\n      add\n        /* \"#utility.yul\":4000:4004   */\n      0x20\n        /* \"#utility.yul\":3992:3998   */\n      dup4\n        /* \"#utility.yul\":3988:4005   */\n      add\n        /* \"#utility.yul\":3975:4025   */\n      calldatacopy\n        /* \"#utility.yul\":4069:4070   */\n      0x00\n        /* \"#utility.yul\":4062:4066   */\n      0x20\n        /* \"#utility.yul\":4057:4059   */\n      dup5\n        /* \"#utility.yul\":4049:4055   */\n      dup4\n        /* \"#utility.yul\":4045:4060   */\n      add\n        /* \"#utility.yul\":4041:4067   */\n      add\n        /* \"#utility.yul\":4034:4071   */\n      mstore\n        /* \"#utility.yul\":4090:4096   */\n      dup1\n        /* \"#utility.yul\":4080:4096   */\n      swap8\n      pop\n      pop\n      pop\n      pop\n      pop\n      pop\n        /* \"#utility.yul\":4143:4147   */\n      0x20\n        /* \"#utility.yul\":4132:4141   */\n      dup5\n        /* \"#utility.yul\":4128:4148   */\n      add\n        /* \"#utility.yul\":4115:4149   */\n      calldataload\n        /* \"#utility.yul\":4105:4149   */\n      swap2\n      pop\n        /* \"#utility.yul\":4168:4206   */\n      tag_196\n        /* \"#utility.yul\":4202:4204   */\n      0x40\n        /* \"#utility.yul\":4191:4200   */\n      dup6\n        /* \"#utility.yul\":4187:4205   */\n      add\n        /* \"#utility.yul\":4168:4206   */\n      tag_156\n      jump\t// in\n    tag_196:\n        /* \"#utility.yul\":4158:4206   */\n      swap1\n      pop\n        /* \"#utility.yul\":3138:4212   */\n      swap3\n      pop\n      swap3\n      pop\n      swap3\n      jump\t// out\n        /* \"#utility.yul\":4217:4344   */\n    tag_158:\n        /* \"#utility.yul\":4278:4288   */\n      0x4e487b71\n        /* \"#utility.yul\":4273:4276   */\n      0xe0\n        /* \"#utility.yul\":4269:4289   */\n      shl\n        /* \"#utility.yul\":4266:4267   */\n      0x00\n        /* \"#utility.yul\":4259:4290   */\n      mstore\n        /* \"#utility.yul\":4309:4313   */\n      0x12\n        /* \"#utility.yul\":4306:4307   */\n      0x04\n        /* \"#utility.yul\":4299:4314   */\n      mstore\n        /* \"#utility.yul\":4333:4337   */\n      0x24\n        /* \"#utility.yul\":4330:4331   */\n      0x00\n        /* \"#utility.yul\":4323:4338   */\n      revert\n        /* \"#utility.yul\":4349:4476   */\n    tag_159:\n        /* \"#utility.yul\":4410:4420   */\n      0x4e487b71\n        /* \"#utility.yul\":4405:4408   */\n      0xe0\n        /* \"#utility.yul\":4401:4421   */\n      shl\n        /* \"#utility.yul\":4398:4399   */\n      0x00\n        /* \"#utility.yul\":4391:4422   */\n      mstore\n        /* \"#utility.yul\":4441:4445   */\n      0x11\n        /* \"#utility.yul\":4438:4439   */\n      0x04\n        /* \"#utility.yul\":4431:4446   */\n      mstore\n        /* \"#utility.yul\":4465:4469   */\n      0x24\n        /* \"#utility.yul\":4462:4463   */\n      0x00\n        /* \"#utility.yul\":4455:4470   */\n      revert\n        /* \"#utility.yul\":4481:4601   */\n    tag_70:\n        /* \"#utility.yul\":4521:4522   */\n      0x00\n        /* \"#utility.yul\":4547:4548   */\n      dup3\n        /* \"#utility.yul\":4537:4572   */\n      tag_201\n      jumpi\n        /* \"#utility.yul\":4552:4570   */\n      tag_201\n      tag_158\n      jump\t// in\n    tag_201:\n      pop\n        /* \"#utility.yul\":4586:4595   */\n      div\n      swap1\n        /* \"#utility.yul\":4481:4601   */\n      jump\t// out\n        /* \"#utility.yul\":4606:4986   */\n    tag_85:\n        /* \"#utility.yul\":4685:4686   */\n      0x01\n        /* \"#utility.yul\":4681:4693   */\n      dup2\n      dup2\n      shr\n      swap1\n        /* \"#utility.yul\":4728:4740   */\n      dup3\n      and\n      dup1\n        /* \"#utility.yul\":4749:4810   */\n      tag_203\n      jumpi\n        /* \"#utility.yul\":4803:4807   */\n      0x7f\n        /* \"#utility.yul\":4795:4801   */\n      dup3\n        /* \"#utility.yul\":4791:4808   */\n      and\n        /* \"#utility.yul\":4781:4808   */\n      swap2\n      pop\n        /* \"#utility.yul\":4749:4810   */\n    tag_203:\n        /* \"#utility.yul\":4856:4858   */\n      0x20\n        /* \"#utility.yul\":4848:4854   */\n      dup3\n        /* \"#utility.yul\":4845:4859   */\n      lt\n        /* \"#utility.yul\":4825:4843   */\n      dup2\n        /* \"#utility.yul\":4822:4860   */\n      sub\n        /* \"#utility.yul\":4819:4980   */\n      tag_204\n      jumpi\n        /* \"#utility.yul\":4902:4912   */\n      0x4e487b71\n        /* \"#utility.yul\":4897:4900   */\n      0xe0\n        /* \"#utility.yul\":4893:4913   */\n      shl\n        /* \"#utility.yul\":4890:4891   */\n      0x00\n        /* \"#utility.yul\":4883:4914   */\n      mstore\n        /* \"#utility.yul\":4937:4941   */\n      0x22\n        /* \"#utility.yul\":4934:4935   */\n      0x04\n        /* \"#utility.yul\":4927:4942   */\n      mstore\n        /* \"#utility.yul\":4965:4969   */\n      0x24\n        /* \"#utility.yul\":4962:4963   */\n      0x00\n        /* \"#utility.yul\":4955:4970   */\n      revert\n        /* \"#utility.yul\":4819:4980   */\n    tag_204:\n      pop\n        /* \"#utility.yul\":4606:4986   */\n      swap2\n      swap1\n      pop\n      jump\t// out\n        /* \"#utility.yul\":4991:5126   */\n    tag_94:\n        /* \"#utility.yul\":5030:5033   */\n      0x00\n        /* \"#utility.yul\":5051:5068   */\n      0x01\n      dup3\n      add\n        /* \"#utility.yul\":5048:5091   */\n      tag_207\n      jumpi\n        /* \"#utility.yul\":5071:5089   */\n      tag_207\n      tag_159\n      jump\t// in\n    tag_207:\n      pop\n        /* \"#utility.yul\":5118:5119   */\n      0x01\n        /* \"#utility.yul\":5107:5120   */\n      add\n      swap1\n        /* \"#utility.yul\":4991:5126   */\n      jump\t// out\n        /* \"#utility.yul\":5257:5775   */\n    tag_161:\n        /* \"#utility.yul\":5359:5361   */\n      0x1f\n        /* \"#utility.yul\":5354:5357   */\n      dup3\n        /* \"#utility.yul\":5351:5362   */\n      gt\n        /* \"#utility.yul\":5348:5769   */\n      iszero\n      tag_210\n      jumpi\n        /* \"#utility.yul\":5395:5400   */\n      dup1\n        /* \"#utility.yul\":5392:5393   */\n      0x00\n        /* \"#utility.yul\":5385:5401   */\n      mstore\n        /* \"#utility.yul\":5439:5443   */\n      0x20\n        /* \"#utility.yul\":5436:5437   */\n      0x00\n        /* \"#utility.yul\":5426:5444   */\n      keccak256\n        /* \"#utility.yul\":5509:5511   */\n      0x1f\n        /* \"#utility.yul\":5497:5507   */\n      dup5\n        /* \"#utility.yul\":5493:5512   */\n      add\n        /* \"#utility.yul\":5490:5491   */\n      0x05\n        /* \"#utility.yul\":5486:5513   */\n      shr\n        /* \"#utility.yul\":5480:5484   */\n      dup2\n        /* \"#utility.yul\":5476:5514   */\n      add\n        /* \"#utility.yul\":5545:5549   */\n      0x20\n        /* \"#utility.yul\":5533:5543   */\n      dup6\n        /* \"#utility.yul\":5530:5550   */\n      lt\n        /* \"#utility.yul\":5527:5574   */\n      iszero\n      tag_211\n      jumpi\n      pop\n        /* \"#utility.yul\":5568:5572   */\n      dup1\n        /* \"#utility.yul\":5527:5574   */\n    tag_211:\n        /* \"#utility.yul\":5623:5625   */\n      0x1f\n        /* \"#utility.yul\":5618:5621   */\n      dup5\n        /* \"#utility.yul\":5614:5626   */\n      add\n        /* \"#utility.yul\":5611:5612   */\n      0x05\n        /* \"#utility.yul\":5607:5627   */\n      shr\n        /* \"#utility.yul\":5601:5605   */\n      dup3\n        /* \"#utility.yul\":5597:5628   */\n      add\n        /* \"#utility.yul\":5587:5628   */\n      swap2\n      pop\n        /* \"#utility.yul\":5678:5759   */\n    tag_212:\n        /* \"#utility.yul\":5696:5698   */\n      dup2\n        /* \"#utility.yul\":5689:5694   */\n      dup2\n        /* \"#utility.yul\":5686:5699   */\n      lt\n        /* \"#utility.yul\":5678:5759   */\n      iszero\n      tag_214\n      jumpi\n        /* \"#utility.yul\":5755:5756   */\n      0x00\n        /* \"#utility.yul\":5741:5757   */\n      dup2\n      sstore\n        /* \"#utility.yul\":5722:5723   */\n      0x01\n        /* \"#utility.yul\":5711:5724   */\n      add\n        /* \"#utility.yul\":5678:5759   */\n      jump(tag_212)\n    tag_214:\n        /* \"#utility.yul\":5682:5685   */\n      pop\n      pop\n        /* \"#utility.yul\":5348:5769   */\n    tag_210:\n        /* \"#utility.yul\":5257:5775   */\n      pop\n      pop\n      pop\n      jump\t// out\n        /* \"#utility.yul\":5951:7296   */\n    tag_96:\n        /* \"#utility.yul\":6077:6080   */\n      dup2\n        /* \"#utility.yul\":6071:6081   */\n      mload\n        /* \"#utility.yul\":6104:6122   */\n      0xffffffffffffffff\n        /* \"#utility.yul\":6096:6102   */\n      dup2\n        /* \"#utility.yul\":6093:6123   */\n      gt\n        /* \"#utility.yul\":6090:6146   */\n      iszero\n      tag_218\n      jumpi\n        /* \"#utility.yul\":6126:6144   */\n      tag_218\n      tag_112\n      jump\t// in\n    tag_218:\n        /* \"#utility.yul\":6155:6252   */\n      tag_219\n        /* \"#utility.yul\":6245:6251   */\n      dup2\n        /* \"#utility.yul\":6205:6243   */\n      tag_220\n        /* \"#utility.yul\":6237:6241   */\n      dup5\n        /* \"#utility.yul\":6231:6242   */\n      sload\n        /* \"#utility.yul\":6205:6243   */\n      tag_85\n      jump\t// in\n    tag_220:\n        /* \"#utility.yul\":6199:6203   */\n      dup5\n        /* \"#utility.yul\":6155:6252   */\n      tag_161\n      jump\t// in\n    tag_219:\n        /* \"#utility.yul\":6307:6311   */\n      0x20\n      dup1\n        /* \"#utility.yul\":6364:6366   */\n      0x1f\n        /* \"#utility.yul\":6353:6367   */\n      dup4\n      gt\n        /* \"#utility.yul\":6381:6382   */\n      0x01\n        /* \"#utility.yul\":6376:7039   */\n      dup2\n      eq\n      tag_222\n      jumpi\n        /* \"#utility.yul\":7083:7084   */\n      0x00\n        /* \"#utility.yul\":7100:7106   */\n      dup5\n        /* \"#utility.yul\":7097:7186   */\n      iszero\n      tag_223\n      jumpi\n      pop\n        /* \"#utility.yul\":7152:7171   */\n      dup6\n      dup4\n      add\n        /* \"#utility.yul\":7146:7172   */\n      mload\n        /* \"#utility.yul\":7097:7186   */\n    tag_223:\n      not(0x00)\n        /* \"#utility.yul\":5908:5909   */\n      0x03\n        /* \"#utility.yul\":5904:5915   */\n      dup7\n      swap1\n      shl\n        /* \"#utility.yul\":5900:5924   */\n      shr\n        /* \"#utility.yul\":5896:5925   */\n      not\n        /* \"#utility.yul\":5886:5926   */\n      and\n        /* \"#utility.yul\":5932:5933   */\n      0x01\n        /* \"#utility.yul\":5928:5939   */\n      dup6\n      swap1\n      shl\n        /* \"#utility.yul\":5883:5940   */\n      or\n        /* \"#utility.yul\":7199:7280   */\n      dup6\n      sstore\n        /* \"#utility.yul\":6346:7290   */\n      jump(tag_221)\n        /* \"#utility.yul\":6376:7039   */\n    tag_222:\n        /* \"#utility.yul\":5204:5205   */\n      0x00\n        /* \"#utility.yul\":5197:5211   */\n      dup6\n      dup2\n      mstore\n        /* \"#utility.yul\":5241:5245   */\n      0x20\n        /* \"#utility.yul\":5228:5246   */\n      dup2\n      keccak256\n      not(0x1f)\n        /* \"#utility.yul\":6412:6432   */\n      dup7\n      and\n      swap2\n        /* \"#utility.yul\":6530:6766   */\n    tag_226:\n        /* \"#utility.yul\":6544:6551   */\n      dup3\n        /* \"#utility.yul\":6541:6542   */\n      dup2\n        /* \"#utility.yul\":6538:6552   */\n      lt\n        /* \"#utility.yul\":6530:6766   */\n      iszero\n      tag_228\n      jumpi\n        /* \"#utility.yul\":6633:6652   */\n      dup9\n      dup7\n      add\n        /* \"#utility.yul\":6627:6653   */\n      mload\n        /* \"#utility.yul\":6612:6654   */\n      dup3\n      sstore\n        /* \"#utility.yul\":6725:6752   */\n      swap5\n      dup5\n      add\n      swap5\n        /* \"#utility.yul\":6693:6694   */\n      0x01\n        /* \"#utility.yul\":6681:6695   */\n      swap1\n      swap2\n      add\n      swap1\n        /* \"#utility.yul\":6560:6579   */\n      dup5\n      add\n        /* \"#utility.yul\":6530:6766   */\n      jump(tag_226)\n    tag_228:\n        /* \"#utility.yul\":6534:6537   */\n      pop\n        /* \"#utility.yul\":6794:6800   */\n      dup6\n        /* \"#utility.yul\":6785:6792   */\n      dup3\n        /* \"#utility.yul\":6782:6801   */\n      lt\n        /* \"#utility.yul\":6779:6980   */\n      iszero\n      tag_229\n      jumpi\n        /* \"#utility.yul\":6855:6874   */\n      dup8\n      dup6\n      add\n        /* \"#utility.yul\":6849:6875   */\n      mload\n      not(0x00)\n        /* \"#utility.yul\":6938:6939   */\n      0x03\n        /* \"#utility.yul\":6934:6948   */\n      dup9\n      swap1\n      shl\n        /* \"#utility.yul\":6950:6953   */\n      0xf8\n        /* \"#utility.yul\":6930:6954   */\n      and\n        /* \"#utility.yul\":6926:6963   */\n      shr\n        /* \"#utility.yul\":6922:6964   */\n      not\n        /* \"#utility.yul\":6907:6965   */\n      and\n        /* \"#utility.yul\":6892:6966   */\n      dup2\n      sstore\n        /* \"#utility.yul\":6779:6980   */\n    tag_229:\n      pop\n      pop\n        /* \"#utility.yul\":7026:7027   */\n      0x01\n        /* \"#utility.yul\":7017:7023   */\n      dup5\n        /* \"#utility.yul\":7014:7015   */\n      0x01\n        /* \"#utility.yul\":7010:7024   */\n      shl\n        /* \"#utility.yul\":7006:7028   */\n      add\n        /* \"#utility.yul\":7000:7004   */\n      dup6\n        /* \"#utility.yul\":6993:7029   */\n      sstore\n        /* \"#utility.yul\":6346:7290   */\n    tag_221:\n      pop\n      pop\n      pop\n      pop\n        /* \"#utility.yul\":5951:7296   */\n      pop\n      pop\n      jump\t// out\n        /* \"#utility.yul\":7301:7437   */\n    tag_117:\n        /* \"#utility.yul\":7340:7343   */\n      0x00\n        /* \"#utility.yul\":7368:7373   */\n      dup2\n        /* \"#utility.yul\":7358:7397   */\n      tag_232\n      jumpi\n        /* \"#utility.yul\":7377:7395   */\n      tag_232\n      tag_159\n      jump\t// in\n    tag_232:\n      pop\n      not(0x00)\n        /* \"#utility.yul\":7413:7431   */\n      add\n      swap1\n        /* \"#utility.yul\":7301:7437   */\n      jump\t// out\n        /* \"#utility.yul\":7442:7554   */\n    tag_119:\n        /* \"#utility.yul\":7474:7475   */\n      0x00\n        /* \"#utility.yul\":7500:7501   */\n      dup3\n        /* \"#utility.yul\":7490:7525   */\n      tag_235\n      jumpi\n        /* \"#utility.yul\":7505:7523   */\n      tag_235\n      tag_158\n      jump\t// in\n    tag_235:\n      pop\n        /* \"#utility.yul\":7539:7548   */\n      mod\n      swap1\n        /* \"#utility.yul\":7442:7554   */\n      jump\t// out\n        /* \"#utility.yul\":7559:7684   */\n    tag_121:\n        /* \"#utility.yul\":7624:7633   */\n      dup1\n      dup3\n      add\n        /* \"#utility.yul\":7645:7655   */\n      dup1\n      dup3\n      gt\n        /* \"#utility.yul\":7642:7678   */\n      iszero\n      tag_238\n      jumpi\n        /* \"#utility.yul\":7658:7676   */\n      tag_238\n      tag_159\n      jump\t// in\n    tag_238:\n        /* \"#utility.yul\":7559:7684   */\n      swap3\n      swap2\n      pop\n      pop\n      jump\t// out\n        /* \"#utility.yul\":7689:7816   */\n    tag_124:\n        /* \"#utility.yul\":7750:7760   */\n      0x4e487b71\n        /* \"#utility.yul\":7745:7748   */\n      0xe0\n        /* \"#utility.yul\":7741:7761   */\n      shl\n        /* \"#utility.yul\":7738:7739   */\n      0x00\n        /* \"#utility.yul\":7731:7762   */\n      mstore\n        /* \"#utility.yul\":7781:7785   */\n      0x32\n        /* \"#utility.yul\":7778:7779   */\n      0x04\n        /* \"#utility.yul\":7771:7786   */\n      mstore\n        /* \"#utility.yul\":7805:7809   */\n      0x24\n        /* \"#utility.yul\":7802:7803   */\n      0x00\n        /* \"#utility.yul\":7795:7810   */\n      revert\n        /* \"#utility.yul\":7821:7989   */\n    tag_143:\n        /* \"#utility.yul\":7894:7903   */\n      dup1\n      dup3\n      mul\n        /* \"#utility.yul\":7925:7934   */\n      dup2\n      iszero\n        /* \"#utility.yul\":7942:7957   */\n      dup3\n      dup3\n      div\n        /* \"#utility.yul\":7936:7958   */\n      dup5\n      eq\n        /* \"#utility.yul\":7922:7959   */\n      or\n        /* \"#utility.yul\":7912:7983   */\n      tag_238\n      jumpi\n        /* \"#utility.yul\":7963:7981   */\n      tag_238\n      tag_159\n      jump\t// in\n\n    auxdata: 0xa26469706673582212200a23e206869c356242a93f199e1000b7729b251388830e2d06d4555038e2aefa64736f6c63430008180033\n}\n","bytecode":{"linkReferences":{},"object":"608060405234801561000f575f80fd5b50604051610ce0380380610ce083398101604081905261002e91610055565b5f80546001600160a01b0319166001600160a01b039290921691909117905560015561008f565b5f8060408385031215610066575f80fd5b825160208401519092506001600160a01b0381168114610084575f80fd5b809150509250929050565b610c448061009c5f395ff3fe60806040526004361061009a575f3560e01c806381d12c581161006257806381d12c581461017b57806382fde093146101ab5780638a9cfd55146101c0578063937e09b1146101df578063d7bb99ba146101f4578063d7d1bbdb146101fc575f80fd5b8063034410061461009e5780630a144391146100bf5780633410452a146101025780634051ddac14610120578063481c6a7514610145575b5f80fd5b3480156100a9575f80fd5b506100bd6100b83660046107f3565b61021b565b005b3480156100ca575f80fd5b506100ed6100d9366004610825565b60026020525f908152604090205460ff1681565b60405190151581526020015b60405180910390f35b34801561010d575f80fd5b506004545b6040519081526020016100f9565b34801561012b575f80fd5b506101346102c7565b6040516100f9959493929190610888565b348015610150575f80fd5b505f54610163906001600160a01b031681565b6040516001600160a01b0390911681526020016100f9565b348015610186575f80fd5b5061019a6101953660046107f3565b61031e565b6040516100f99594939291906108f4565b3480156101b6575f80fd5b5061011260035481565b3480156101cb575f80fd5b506100bd6101da366004610947565b6103e2565b3480156101ea575f80fd5b5061011260015481565b6100bd610460565b348015610207575f80fd5b506100bd6102163660046107f3565b61049b565b5f546001600160a01b03163314610230575f80fd5b5f81815260056020526040902060035461024c90600290610a33565b81600301541161025a575f80fd5b6002810154600160a01b900460ff1615610272575f80fd5b600281015460018201546040516001600160a01b039092169181156108fc0291905f818181858888f193505050501580156102af573d5f803e3d5ffd5b50600201805460ff60a01b1916600160a01b17905550565b60608060608060606102da600154610513565b6102e347610513565b6102ee600454610513565b6102f9600354610513565b5f5461030d906001600160a01b0316610619565b945094509450945094509091929394565b60056020525f908152604090208054819061033890610a46565b80601f016020809104026020016040519081016040528092919081815260200182805461036490610a46565b80156103af5780601f10610386576101008083540402835291602001916103af565b820191905f5260205f20905b81548152906001019060200180831161039257829003601f168201915b5050505060018301546002840154600390940154929390926001600160a01b0382169250600160a01b90910460ff169085565b5f546001600160a01b031633146103f7575f80fd5b600480545f9160059183918261040c83610a7e565b90915550815260208101919091526040015f2090508061042c8582610ae2565b5060018101929092556002820180546001600160a81b0319166001600160a01b039092169190911790555f60039091015550565b600154341161046d575f80fd5b335f908152600260205260408120805460ff19166001179055600380549161049483610a7e565b9190505550565b5f81815260056020908152604080832033845260029092529091205460ff166104c2575f80fd5b335f90815260048201602052604090205460ff16156104df575f80fd5b335f9081526004820160205260408120805460ff191660011790556003820180549161050a83610a7e565b91905055505050565b6060815f036105395750506040805180820190915260018152600360fc1b602082015290565b815f5b8115610562578061054c81610a7e565b915061055b9050600a83610a33565b915061053c565b5f8167ffffffffffffffff81111561057c5761057c610933565b6040519080825280601f01601f1916602001820160405280156105a6576020820181803683370190505b5090505b841561061157816105ba81610ba2565b92506105c99050600a86610bb7565b6105d4906030610bca565b60f81b8183815181106105e9576105e9610be3565b60200101906001600160f81b03191690815f1a90535061060a600a86610a33565b94506105aa565b949350505050565b604080518082018252601081526f181899199a1a9b1b9c1cb0b131b232b360811b60208201528151602a80825260608281019094526001600160a01b03851692915f91602082018180368337019050509050600360fc1b815f8151811061068257610682610be3565b60200101906001600160f81b03191690815f1a905350600f60fb1b816001815181106106b0576106b0610be3565b60200101906001600160f81b03191690815f1a9053505f5b60148110156107ea57826004856106e084600c610bca565b602081106106f0576106f0610be3565b1a60f81b6001600160f81b031916901c60f81c60ff168151811061071657610716610be3565b01602001516001600160f81b03191682610731836002610bf7565b61073c906002610bca565b8151811061074c5761074c610be3565b60200101906001600160f81b03191690815f1a905350828461076f83600c610bca565b6020811061077f5761077f610be3565b825191901a600f1690811061079657610796610be3565b01602001516001600160f81b031916826107b1836002610bf7565b6107bc906003610bca565b815181106107cc576107cc610be3565b60200101906001600160f81b03191690815f1a9053506001016106c8565b50949350505050565b5f60208284031215610803575f80fd5b5035919050565b80356001600160a01b0381168114610820575f80fd5b919050565b5f60208284031215610835575f80fd5b61083e8261080a565b9392505050565b5f81518084525f5b818110156108695760208185018101518683018201520161084d565b505f602082860101526020601f19601f83011685010191505092915050565b60a081525f61089a60a0830188610845565b82810360208401526108ac8188610845565b905082810360408401526108c08187610845565b905082810360608401526108d48186610845565b905082810360808401526108e88185610845565b98975050505050505050565b60a081525f61090660a0830188610845565b6020830196909652506001600160a01b039390931660408401529015156060830152608090910152919050565b634e487b7160e01b5f52604160045260245ffd5b5f805f60608486031215610959575f80fd5b833567ffffffffffffffff80821115610970575f80fd5b818601915086601f830112610983575f80fd5b81358181111561099557610995610933565b604051601f8201601f19908116603f011681019083821181831017156109bd576109bd610933565b816040528281528960208487010111156109d5575f80fd5b826020860160208301375f60208483010152809750505050505060208401359150610a026040850161080a565b90509250925092565b634e487b7160e01b5f52601260045260245ffd5b634e487b7160e01b5f52601160045260245ffd5b5f82610a4157610a41610a0b565b500490565b600181811c90821680610a5a57607f821691505b602082108103610a7857634e487b7160e01b5f52602260045260245ffd5b50919050565b5f60018201610a8f57610a8f610a1f565b5060010190565b601f821115610add57805f5260205f20601f840160051c81016020851015610abb5750805b601f840160051c820191505b81811015610ada575f8155600101610ac7565b50505b505050565b815167ffffffffffffffff811115610afc57610afc610933565b610b1081610b0a8454610a46565b84610a96565b602080601f831160018114610b43575f8415610b2c5750858301515b5f19600386901b1c1916600185901b178555610b9a565b5f85815260208120601f198616915b82811015610b7157888601518255948401946001909101908401610b52565b5085821015610b8e57878501515f19600388901b60f8161c191681555b505060018460011b0185555b505050505050565b5f81610bb057610bb0610a1f565b505f190190565b5f82610bc557610bc5610a0b565b500690565b80820180821115610bdd57610bdd610a1f565b92915050565b634e487b7160e01b5f52603260045260245ffd5b8082028115828204841417610bdd57610bdd610a1f56fea26469706673582212200a23e206869c356242a93f199e1000b7729b251388830e2d06d4555038e2aefa64736f6c63430008180033","opcodes":"PUSH1 0x80 PUSH1 0x40 MSTORE CALLVALUE DUP1 ISZERO PUSH2 0xF JUMPI PUSH0 DUP1 REVERT JUMPDEST POP PUSH1 0x40 MLOAD PUSH2 0xCE0 CODESIZE SUB DUP1 PUSH2 0xCE0 DUP4 CODECOPY DUP2 ADD PUSH1 0x40 DUP2 SWAP1 MSTORE PUSH2 0x2E SWAP2 PUSH2 0x55 JUMP JUMPDEST PUSH0 DUP1 SLOAD PUSH1 0x1 PUSH1 0x1 PUSH1 0xA0 SHL SUB NOT AND PUSH1 0x1 PUSH1 0x1 PUSH1 0xA0 SHL SUB SWAP3 SWAP1 SWAP3 AND SWAP2 SWAP1 SWAP2 OR SWAP1 SSTORE PUSH1 0x1 SSTORE PUSH2 0x8F JUMP JUMPDEST PUSH0 DUP1 PUSH1 0x40 DUP4 DUP6 SUB SLT ISZERO PUSH2 0x66 JUMPI PUSH0 DUP1 REVERT JUMPDEST DUP3 MLOAD PUSH1 0x20 DUP5 ADD MLOAD SWAP1 SWAP3 POP PUSH1 0x1 PUSH1 0x1 PUSH1 0xA0 SHL SUB DUP2 AND DUP2 EQ PUSH2 0x84 JUMPI PUSH0 DUP1 REVERT JUMPDEST DUP1 SWAP2 POP POP SWAP3 POP SWAP3 SWAP1 POP JUMP JUMPDEST PUSH2 0xC44 DUP1 PUSH2 0x9C PUSH0 CODECOPY PUSH0 RETURN INVALID PUSH1 0x80 PUSH1 0x40 MSTORE PUSH1 0x4 CALLDATASIZE LT PUSH2 0x9A JUMPI PUSH0 CALLDATALOAD PUSH1 0xE0 SHR DUP1 PUSH4 0x81D12C58 GT PUSH2 0x62 JUMPI DUP1 PUSH4 0x81D12C58 EQ PUSH2 0x17B JUMPI DUP1 PUSH4 0x82FDE093 EQ PUSH2 0x1AB JUMPI DUP1 PUSH4 0x8A9CFD55 EQ PUSH2 0x1C0 JUMPI DUP1 PUSH4 0x937E09B1 EQ PUSH2 0x1DF JUMPI DUP1 PUSH4 0xD7BB99BA EQ PUSH2 0x1F4 JUMPI DUP1 PUSH4 0xD7D1BBDB EQ PUSH2 0x1FC JUMPI PUSH0 DUP1 REVERT JUMPDEST DUP1 PUSH4 0x3441006 EQ PUSH2 0x9E JUMPI DUP1 PUSH4 0xA144391 EQ PUSH2 0xBF JUMPI DUP1 PUSH4 0x3410452A EQ PUSH2 0x102 JUMPI DUP1 PUSH4 0x4051DDAC EQ PUSH2 0x120 JUMPI DUP1 PUSH4 0x481C6A75 EQ PUSH2 0x145 JUMPI JUMPDEST PUSH0 DUP1 REVERT JUMPDEST CALLVALUE DUP1 ISZERO PUSH2 0xA9 JUMPI PUSH0 DUP1 REVERT JUMPDEST POP PUSH2 0xBD PUSH2 0xB8 CALLDATASIZE PUSH1 0x4 PUSH2 0x7F3 JUMP JUMPDEST PUSH2 0x21B JUMP JUMPDEST STOP JUMPDEST CALLVALUE DUP1 ISZERO PUSH2 0xCA JUMPI PUSH0 DUP1 REVERT JUMPDEST POP PUSH2 0xED PUSH2 0xD9 CALLDATASIZE PUSH1 0x4 PUSH2 0x825 JUMP JUMPDEST PUSH1 0x2 PUSH1 0x20 MSTORE PUSH0 SWAP1 DUP2 MSTORE PUSH1 0x40 SWAP1 KECCAK256 SLOAD PUSH1 0xFF AND DUP2 JUMP JUMPDEST PUSH1 0x40 MLOAD SWAP1 ISZERO ISZERO DUP2 MSTORE PUSH1 0x20 ADD JUMPDEST PUSH1 0x40 MLOAD DUP1 SWAP2 SUB SWAP1 RETURN JUMPDEST CALLVALUE DUP1 ISZERO PUSH2 0x10D JUMPI PUSH0 DUP1 REVERT JUMPDEST POP PUSH1 0x4 SLOAD JUMPDEST PUSH1 0x40 MLOAD SWAP1 DUP2 MSTORE PUSH1 0x20 ADD PUSH2 0xF9 JUMP JUMPDEST CALLVALUE DUP1 ISZERO PUSH2 0x12B JUMPI PUSH0 DUP1 REVERT JUMPDEST POP PUSH2 0x134 PUSH2 0x2C7 JUMP JUMPDEST PUSH1 0x40 MLOAD PUSH2 0xF9 SWAP6 SWAP5 SWAP4 SWAP3 SWAP2 SWAP1 PUSH2 0x888 JUMP JUMPDEST CALLVALUE DUP1 ISZERO PUSH2 0x150 JUMPI PUSH0 DUP1 REVERT JUMPDEST POP PUSH0 SLOAD PUSH2 0x163 SWAP1 PUSH1 0x1 PUSH1 0x1 PUSH1 0xA0 SHL SUB AND DUP2 JUMP JUMPDEST PUSH1 0x40 MLOAD PUSH1 0x1 PUSH1 0x1 PUSH1 0xA0 SHL SUB SWAP1 SWAP2 AND DUP2 MSTORE PUSH1 0x20 ADD PUSH2 0xF9 JUMP JUMPDEST CALLVALUE DUP1 ISZERO PUSH2 0x186 JUMPI PUSH0 DUP1 REVERT JUMPDEST POP PUSH2 0x19A PUSH2 0x195 CALLDATASIZE PUSH1 0x4 PUSH2 0x7F3 JUMP JUMPDEST PUSH2 0x31E JUMP JUMPDEST PUSH1 0x40 MLOAD PUSH2 0xF9 SWAP6 SWAP5 SWAP4 SWAP3 SWAP2 SWAP1 PUSH2 0x8F4 JUMP JUMPDEST CALLVALUE DUP1 ISZERO PUSH2 0x1B6 JUMPI PUSH0 DUP1 REVERT JUMPDEST POP PUSH2 0x112 PUSH1 0x3 SLOAD DUP2 JUMP JUMPDEST CALLVALUE DUP1 ISZERO PUSH2 0x1CB JUMPI PUSH0 DUP1 REVERT JUMPDEST POP PUSH2 0xBD PUSH2 0x1DA CALLDATASIZE PUSH1 0x4 PUSH2 0x947 JUMP JUMPDEST PUSH2 0x3E2 JUMP JUMPDEST CALLVALUE DUP1 ISZERO PUSH2 0x1EA JUMPI PUSH0 DUP1 REVERT JUMPDEST POP PUSH2 0x112 PUSH1 0x1 SLOAD DUP2 JUMP JUMPDEST PUSH2 0xBD PUSH2 0x460 JUMP JUMPDEST CALLVALUE DUP1 ISZERO PUSH2 0x207 JUMPI PUSH0 DUP1 REVERT JUMPDEST POP PUSH2 0xBD PUSH2 0x216 CALLDATASIZE PUSH1 0x4 PUSH2 0x7F3 JUMP JUMPDEST PUSH2 0x49B JUMP JUMPDEST PUSH0 SLOAD PUSH1 0x1 PUSH1 0x1 PUSH1 0xA0 SHL SUB AND CALLER EQ PUSH2 0x230 JUMPI PUSH0 DUP1 REVERT JUMPDEST PUSH0 DUP2 DUP2 MSTORE PUSH1 0x5 PUSH1 0x20 MSTORE PUSH1 0x40 SWAP1 KECCAK256 PUSH1 0x3 SLOAD PUSH2 0x24C SWAP1 PUSH1 0x2 SWAP1 PUSH2 0xA33 JUMP JUMPDEST DUP2 PUSH1 0x3 ADD SLOAD GT PUSH2 0x25A JUMPI PUSH0 DUP1 REVERT JUMPDEST PUSH1 0x2 DUP2 ADD SLOAD PUSH1 0x1 PUSH1 0xA0 SHL SWAP1 DIV PUSH1 0xFF AND ISZERO PUSH2 0x272 JUMPI PUSH0 DUP1 REVERT JUMPDEST PUSH1 0x2 DUP2 ADD SLOAD PUSH1 0x1 DUP3 ADD SLOAD PUSH1 0x40 MLOAD PUSH1 0x1 PUSH1 0x1 PUSH1 0xA0 SHL SUB SWAP1 SWAP3 AND SWAP2 DUP2 ISZERO PUSH2 0x8FC MUL SWAP2 SWAP1 PUSH0 DUP2 DUP2 DUP2 DUP6 DUP9 DUP9 CALL SWAP4 POP POP POP POP ISZERO DUP1 ISZERO PUSH2 0x2AF JUMPI RETURNDATASIZE PUSH0 DUP1 RETURNDATACOPY RETURNDATASIZE PUSH0 REVERT JUMPDEST POP PUSH1 0x2 ADD DUP1 SLOAD PUSH1 0xFF PUSH1 0xA0 SHL NOT AND PUSH1 0x1 PUSH1 0xA0 SHL OR SWAP1 SSTORE POP JUMP JUMPDEST PUSH1 0x60 DUP1 PUSH1 0x60 DUP1 PUSH1 0x60 PUSH2 0x2DA PUSH1 0x1 SLOAD PUSH2 0x513 JUMP JUMPDEST PUSH2 0x2E3 SELFBALANCE PUSH2 0x513 JUMP JUMPDEST PUSH2 0x2EE PUSH1 0x4 SLOAD PUSH2 0x513 JUMP JUMPDEST PUSH2 0x2F9 PUSH1 0x3 SLOAD PUSH2 0x513 JUMP JUMPDEST PUSH0 SLOAD PUSH2 0x30D SWAP1 PUSH1 0x1 PUSH1 0x1 PUSH1 0xA0 SHL SUB AND PUSH2 0x619 JUMP JUMPDEST SWAP5 POP SWAP5 POP SWAP5 POP SWAP5 POP SWAP5 POP SWAP1 SWAP2 SWAP3 SWAP4 SWAP5 JUMP JUMPDEST PUSH1 0x5 PUSH1 0x20 MSTORE PUSH0 SWAP1 DUP2 MSTORE PUSH1 0x40 SWAP1 KECCAK256 DUP1 SLOAD DUP2 SWAP1 PUSH2 0x338 SWAP1 PUSH2 0xA46 JUMP JUMPDEST DUP1 PUSH1 0x1F ADD PUSH1 0x20 DUP1 SWAP2 DIV MUL PUSH1 0x20 ADD PUSH1 0x40 MLOAD SWAP1 DUP2 ADD PUSH1 0x40 MSTORE DUP1 SWAP3 SWAP2 SWAP1 DUP2 DUP2 MSTORE PUSH1 0x20 ADD DUP3 DUP1 SLOAD PUSH2 0x364 SWAP1 PUSH2 0xA46 JUMP JUMPDEST DUP1 ISZERO PUSH2 0x3AF JUMPI DUP1 PUSH1 0x1F LT PUSH2 0x386 JUMPI PUSH2 0x100 DUP1 DUP4 SLOAD DIV MUL DUP4 MSTORE SWAP2 PUSH1 0x20 ADD SWAP2 PUSH2 0x3AF JUMP JUMPDEST DUP3 ADD SWAP2 SWAP1 PUSH0 MSTORE PUSH1 0x20 PUSH0 KECCAK256 SWAP1 JUMPDEST DUP2 SLOAD DUP2 MSTORE SWAP1 PUSH1 0x1 ADD SWAP1 PUSH1 0x20 ADD DUP1 DUP4 GT PUSH2 0x392 JUMPI DUP3 SWAP1 SUB PUSH1 0x1F AND DUP3 ADD SWAP2 JUMPDEST POP POP POP POP PUSH1 0x1 DUP4 ADD SLOAD PUSH1 0x2 DUP5 ADD SLOAD PUSH1 0x3 SWAP1 SWAP5 ADD SLOAD SWAP3 SWAP4 SWAP1 SWAP3 PUSH1 0x1 PUSH1 0x1 PUSH1 0xA0 SHL SUB DUP3 AND SWAP3 POP PUSH1 0x1 PUSH1 0xA0 SHL SWAP1 SWAP2 DIV PUSH1 0xFF AND SWAP1 DUP6 JUMP JUMPDEST PUSH0 SLOAD PUSH1 0x1 PUSH1 0x1 PUSH1 0xA0 SHL SUB AND CALLER EQ PUSH2 0x3F7 JUMPI PUSH0 DUP1 REVERT JUMPDEST PUSH1 0x4 DUP1 SLOAD PUSH0 SWAP2 PUSH1 0x5 SWAP2 DUP4 SWAP2 DUP3 PUSH2 0x40C DUP4 PUSH2 0xA7E JUMP JUMPDEST SWAP1 SWAP2 SSTORE POP DUP2 MSTORE PUSH1 0x20 DUP2 ADD SWAP2 SWAP1 SWAP2 MSTORE PUSH1 0x40 ADD PUSH0 KECCAK256 SWAP1 POP DUP1 PUSH2 0x42C DUP6 DUP3 PUSH2 0xAE2 JUMP JUMPDEST POP PUSH1 0x1 DUP2 ADD SWAP3 SWAP1 SWAP3 SSTORE PUSH1 0x2 DUP3 ADD DUP1 SLOAD PUSH1 0x1 PUSH1 0x1 PUSH1 0xA8 SHL SUB NOT AND PUSH1 0x1 PUSH1 0x1 PUSH1 0xA0 SHL SUB SWAP1 SWAP3 AND SWAP2 SWAP1 SWAP2 OR SWAP1 SSTORE PUSH0 PUSH1 0x3 SWAP1 SWAP2 ADD SSTORE POP JUMP JUMPDEST PUSH1 0x1 SLOAD CALLVALUE GT PUSH2 0x46D JUMPI PUSH0 DUP1 REVERT JUMPDEST CALLER PUSH0 SWAP1 DUP2 MSTORE PUSH1 0x2 PUSH1 0x20 MSTORE PUSH1 0x40 DUP2 KECCAK256 DUP1 SLOAD PUSH1 0xFF NOT AND PUSH1 0x1 OR SWAP1 SSTORE PUSH1 0x3 DUP1 SLOAD SWAP2 PUSH2 0x494 DUP4 PUSH2 0xA7E JUMP JUMPDEST SWAP2 SWAP1 POP SSTORE POP JUMP JUMPDEST PUSH0 DUP2 DUP2 MSTORE PUSH1 0x5 PUSH1 0x20 SWAP1 DUP2 MSTORE PUSH1 0x40 DUP1 DUP4 KECCAK256 CALLER DUP5 MSTORE PUSH1 0x2 SWAP1 SWAP3 MSTORE SWAP1 SWAP2 KECCAK256 SLOAD PUSH1 0xFF AND PUSH2 0x4C2 JUMPI PUSH0 DUP1 REVERT JUMPDEST CALLER PUSH0 SWAP1 DUP2 MSTORE PUSH1 0x4 DUP3 ADD PUSH1 0x20 MSTORE PUSH1 0x40 SWAP1 KECCAK256 SLOAD PUSH1 0xFF AND ISZERO PUSH2 0x4DF JUMPI PUSH0 DUP1 REVERT JUMPDEST CALLER PUSH0 SWAP1 DUP2 MSTORE PUSH1 0x4 DUP3 ADD PUSH1 0x20 MSTORE PUSH1 0x40 DUP2 KECCAK256 DUP1 SLOAD PUSH1 0xFF NOT AND PUSH1 0x1 OR SWAP1 SSTORE PUSH1 0x3 DUP3 ADD DUP1 SLOAD SWAP2 PUSH2 0x50A DUP4 PUSH2 0xA7E JUMP JUMPDEST SWAP2 SWAP1 POP SSTORE POP POP POP JUMP JUMPDEST PUSH1 0x60 DUP2 PUSH0 SUB PUSH2 0x539 JUMPI POP POP PUSH1 0x40 DUP1 MLOAD DUP1 DUP3 ADD SWAP1 SWAP2 MSTORE PUSH1 0x1 DUP2 MSTORE PUSH1 0x3 PUSH1 0xFC SHL PUSH1 0x20 DUP3 ADD MSTORE SWAP1 JUMP JUMPDEST DUP2 PUSH0 JUMPDEST DUP2 ISZERO PUSH2 0x562 JUMPI DUP1 PUSH2 0x54C DUP2 PUSH2 0xA7E JUMP JUMPDEST SWAP2 POP PUSH2 0x55B SWAP1 POP PUSH1 0xA DUP4 PUSH2 0xA33 JUMP JUMPDEST SWAP2 POP PUSH2 0x53C JUMP JUMPDEST PUSH0 DUP2 PUSH8 0xFFFFFFFFFFFFFFFF DUP2 GT ISZERO PUSH2 0x57C JUMPI PUSH2 0x57C PUSH2 0x933 JUMP JUMPDEST PUSH1 0x40 MLOAD SWAP1 DUP1 DUP3 MSTORE DUP1 PUSH1 0x1F ADD PUSH1 0x1F NOT AND PUSH1 0x20 ADD DUP3 ADD PUSH1 0x40 MSTORE DUP1 ISZERO PUSH2 0x5A6 JUMPI PUSH1 0x20 DUP3 ADD DUP2 DUP1 CALLDATASIZE DUP4 CALLDATACOPY ADD SWAP1 POP JUMPDEST POP SWAP1 POP JUMPDEST DUP5 ISZERO PUSH2 0x611 JUMPI DUP2 PUSH2 0x5BA DUP2 PUSH2 0xBA2 JUMP JUMPDEST SWAP3 POP PUSH2 0x5C9 SWAP1 POP PUSH1 0xA DUP7 PUSH2 0xBB7 JUMP JUMPDEST PUSH2 0x5D4 SWAP1 PUSH1 0x30 PUSH2 0xBCA JUMP JUMPDEST PUSH1 0xF8 SHL DUP2 DUP4 DUP2 MLOAD DUP2 LT PUSH2 0x5E9 JUMPI PUSH2 0x5E9 PUSH2 0xBE3 JUMP JUMPDEST PUSH1 0x20 ADD ADD SWAP1 PUSH1 0x1 PUSH1 0x1 PUSH1 0xF8 SHL SUB NOT AND SWAP1 DUP2 PUSH0 BYTE SWAP1 MSTORE8 POP PUSH2 0x60A PUSH1 0xA DUP7 PUSH2 0xA33 JUMP JUMPDEST SWAP5 POP PUSH2 0x5AA JUMP JUMPDEST SWAP5 SWAP4 POP POP POP POP JUMP JUMPDEST PUSH1 0x40 DUP1 MLOAD DUP1 DUP3 ADD DUP3 MSTORE PUSH1 0x10 DUP2 MSTORE PUSH16 0x181899199A1A9B1B9C1CB0B131B232B3 PUSH1 0x81 SHL PUSH1 0x20 DUP3 ADD MSTORE DUP2 MLOAD PUSH1 0x2A DUP1 DUP3 MSTORE PUSH1 0x60 DUP3 DUP2 ADD SWAP1 SWAP5 MSTORE PUSH1 0x1 PUSH1 0x1 PUSH1 0xA0 SHL SUB DUP6 AND SWAP3 SWAP2 PUSH0 SWAP2 PUSH1 0x20 DUP3 ADD DUP2 DUP1 CALLDATASIZE DUP4 CALLDATACOPY ADD SWAP1 POP POP SWAP1 POP PUSH1 0x3 PUSH1 0xFC SHL DUP2 PUSH0 DUP2 MLOAD DUP2 LT PUSH2 0x682 JUMPI PUSH2 0x682 PUSH2 0xBE3 JUMP JUMPDEST PUSH1 0x20 ADD ADD SWAP1 PUSH1 0x1 PUSH1 0x1 PUSH1 0xF8 SHL SUB NOT AND SWAP1 DUP2 PUSH0 BYTE SWAP1 MSTORE8 POP PUSH1 0xF PUSH1 0xFB SHL DUP2 PUSH1 0x1 DUP2 MLOAD DUP2 LT PUSH2 0x6B0 JUMPI PUSH2 0x6B0 PUSH2 0xBE3 JUMP JUMPDEST PUSH1 0x20 ADD ADD SWAP1 PUSH1 0x1 PUSH1 0x1 PUSH1 0xF8 SHL SUB NOT AND SWAP1 DUP2 PUSH0 BYTE SWAP1 MSTORE8 POP PUSH0 JUMPDEST PUSH1 0x14 DUP2 LT ISZERO PUSH2 0x7EA JUMPI DUP3 PUSH1 0x4 DUP6 PUSH2 0x6E0 DUP5 PUSH1 0xC PUSH2 0xBCA JUMP JUMPDEST PUSH1 0x20 DUP2 LT PUSH2 0x6F0 JUMPI PUSH2 0x6F0 PUSH2 0xBE3 JUMP JUMPDEST BYTE PUSH1 0xF8 SHL PUSH1 0x1 PUSH1 0x1 PUSH1 0xF8 SHL SUB NOT AND SWAP1 SHR PUSH1 0xF8 SHR PUSH1 0xFF AND DUP2 MLOAD DUP2 LT PUSH2 0x716 JUMPI PUSH2 0x716 PUSH2 0xBE3 JUMP JUMPDEST ADD PUSH1 0x20 ADD MLOAD PUSH1 0x1 PUSH1 0x1 PUSH1 0xF8 SHL SUB NOT AND DUP3 PUSH2 0x731 DUP4 PUSH1 0x2 PUSH2 0xBF7 JUMP JUMPDEST PUSH2 0x73C SWAP1 PUSH1 0x2 PUSH2 0xBCA JUMP JUMPDEST DUP2 MLOAD DUP2 LT PUSH2 0x74C JUMPI PUSH2 0x74C PUSH2 0xBE3 JUMP JUMPDEST PUSH1 0x20 ADD ADD SWAP1 PUSH1 0x1 PUSH1 0x1 PUSH1 0xF8 SHL SUB NOT AND SWAP1 DUP2 PUSH0 BYTE SWAP1 MSTORE8 POP DUP3 DUP5 PUSH2 0x76F DUP4 PUSH1 0xC PUSH2 0xBCA JUMP JUMPDEST PUSH1 0x20 DUP2 LT PUSH2 0x77F JUMPI PUSH2 0x77F PUSH2 0xBE3 JUMP JUMPDEST DUP3 MLOAD SWAP2 SWAP1 BYTE PUSH1 0xF AND SWAP1 DUP2 LT PUSH2 0x796 JUMPI PUSH2 0x796 PUSH2 0xBE3 JUMP JUMPDEST ADD PUSH1 0x20 ADD MLOAD PUSH1 0x1 PUSH1 0x1 PUSH1 0xF8 SHL SUB NOT AND DUP3 PUSH2 0x7B1 DUP4 PUSH1 0x2 PUSH2 0xBF7 JUMP JUMPDEST PUSH2 0x7BC SWAP1 PUSH1 0x3 PUSH2 0xBCA JUMP JUMPDEST DUP2 MLOAD DUP2 LT PUSH2 0x7CC JUMPI PUSH2 0x7CC PUSH2 0xBE3 JUMP JUMPDEST PUSH1 0x20 ADD ADD SWAP1 PUSH1 0x1 PUSH1 0x1 PUSH1 0xF8 SHL SUB NOT AND SWAP1 DUP2 PUSH0 BYTE SWAP1 MSTORE8 POP PUSH1 0x1 ADD PUSH2 0x6C8 JUMP JUMPDEST POP SWAP5 SWAP4 POP POP POP POP JUMP JUMPDEST PUSH0 PUSH1 0x20 DUP3 DUP5 SUB SLT ISZERO PUSH2 0x803 JUMPI PUSH0 DUP1 REVERT JUMPDEST POP CALLDATALOAD SWAP2 SWAP1 POP JUMP JUMPDEST DUP1 CALLDATALOAD PUSH1 0x1 PUSH1 0x1 PUSH1 0xA0 SHL SUB DUP2 AND DUP2 EQ PUSH2 0x820 JUMPI PUSH0 DUP1 REVERT JUMPDEST SWAP2 SWAP1 POP JUMP JUMPDEST PUSH0 PUSH1 0x20 DUP3 DUP5 SUB SLT ISZERO PUSH2 0x835 JUMPI PUSH0 DUP1 REVERT JUMPDEST PUSH2 0x83E DUP3 PUSH2 0x80A JUMP JUMPDEST SWAP4 SWAP3 POP POP POP JUMP JUMPDEST PUSH0 DUP2 MLOAD DUP1 DUP5 MSTORE PUSH0 JUMPDEST DUP2 DUP2 LT ISZERO PUSH2 0x869 JUMPI PUSH1 0x20 DUP2 DUP6 ADD DUP2 ADD MLOAD DUP7 DUP4 ADD DUP3 ADD MSTORE ADD PUSH2 0x84D JUMP JUMPDEST POP PUSH0 PUSH1 0x20 DUP3 DUP7 ADD ADD MSTORE PUSH1 0x20 PUSH1 0x1F NOT PUSH1 0x1F DUP4 ADD AND DUP6 ADD ADD SWAP2 POP POP SWAP3 SWAP2 POP POP JUMP JUMPDEST PUSH1 0xA0 DUP2 MSTORE PUSH0 PUSH2 0x89A PUSH1 0xA0 DUP4 ADD DUP9 PUSH2 0x845 JUMP JUMPDEST DUP3 DUP2 SUB PUSH1 0x20 DUP5 ADD MSTORE PUSH2 0x8AC DUP2 DUP9 PUSH2 0x845 JUMP JUMPDEST SWAP1 POP DUP3 DUP2 SUB PUSH1 0x40 DUP5 ADD MSTORE PUSH2 0x8C0 DUP2 DUP8 PUSH2 0x845 JUMP JUMPDEST SWAP1 POP DUP3 DUP2 SUB PUSH1 0x60 DUP5 ADD MSTORE PUSH2 0x8D4 DUP2 DUP7 PUSH2 0x845 JUMP JUMPDEST SWAP1 POP DUP3 DUP2 SUB PUSH1 0x80 DUP5 ADD MSTORE PUSH2 0x8E8 DUP2 DUP6 PUSH2 0x845 JUMP JUMPDEST SWAP9 SWAP8 POP POP POP POP POP POP POP POP JUMP JUMPDEST PUSH1 0xA0 DUP2 MSTORE PUSH0 PUSH2 0x906 PUSH1 0xA0 DUP4 ADD DUP9 PUSH2 0x845 JUMP JUMPDEST PUSH1 0x20 DUP4 ADD SWAP7 SWAP1 SWAP7 MSTORE POP PUSH1 0x1 PUSH1 0x1 PUSH1 0xA0 SHL SUB SWAP4 SWAP1 SWAP4 AND PUSH1 0x40 DUP5 ADD MSTORE SWAP1 ISZERO ISZERO PUSH1 0x60 DUP4 ADD MSTORE PUSH1 0x80 SWAP1 SWAP2 ADD MSTORE SWAP2 SWAP1 POP JUMP JUMPDEST PUSH4 0x4E487B71 PUSH1 0xE0 SHL PUSH0 MSTORE PUSH1 0x41 PUSH1 0x4 MSTORE PUSH1 0x24 PUSH0 REVERT JUMPDEST PUSH0 DUP1 PUSH0 PUSH1 0x60 DUP5 DUP7 SUB SLT ISZERO PUSH2 0x959 JUMPI PUSH0 DUP1 REVERT JUMPDEST DUP4 CALLDATALOAD PUSH8 0xFFFFFFFFFFFFFFFF DUP1 DUP3 GT ISZERO PUSH2 0x970 JUMPI PUSH0 DUP1 REVERT JUMPDEST DUP2 DUP7 ADD SWAP2 POP DUP7 PUSH1 0x1F DUP4 ADD SLT PUSH2 0x983 JUMPI PUSH0 DUP1 REVERT JUMPDEST DUP2 CALLDATALOAD DUP2 DUP2 GT ISZERO PUSH2 0x995 JUMPI PUSH2 0x995 PUSH2 0x933 JUMP JUMPDEST PUSH1 0x40 MLOAD PUSH1 0x1F DUP3 ADD PUSH1 0x1F NOT SWAP1 DUP2 AND PUSH1 0x3F ADD AND DUP2 ADD SWAP1 DUP4 DUP3 GT DUP2 DUP4 LT OR ISZERO PUSH2 0x9BD JUMPI PUSH2 0x9BD PUSH2 0x933 JUMP JUMPDEST DUP2 PUSH1 0x40 MSTORE DUP3 DUP2 MSTORE DUP10 PUSH1 0x20 DUP5 DUP8 ADD ADD GT ISZERO PUSH2 0x9D5 JUMPI PUSH0 DUP1 REVERT JUMPDEST DUP3 PUSH1 0x20 DUP7 ADD PUSH1 0x20 DUP4 ADD CALLDATACOPY PUSH0 PUSH1 0x20 DUP5 DUP4 ADD ADD MSTORE DUP1 SWAP8 POP POP POP POP POP POP PUSH1 0x20 DUP5 ADD CALLDATALOAD SWAP2 POP PUSH2 0xA02 PUSH1 0x40 DUP6 ADD PUSH2 0x80A JUMP JUMPDEST SWAP1 POP SWAP3 POP SWAP3 POP SWAP3 JUMP JUMPDEST PUSH4 0x4E487B71 PUSH1 0xE0 SHL PUSH0 MSTORE PUSH1 0x12 PUSH1 0x4 MSTORE PUSH1 0x24 PUSH0 REVERT JUMPDEST PUSH4 0x4E487B71 PUSH1 0xE0 SHL PUSH0 MSTORE PUSH1 0x11 PUSH1 0x4 MSTORE PUSH1 0x24 PUSH0 REVERT JUMPDEST PUSH0 DUP3 PUSH2 0xA41 JUMPI PUSH2 0xA41 PUSH2 0xA0B JUMP JUMPDEST POP DIV SWAP1 JUMP JUMPDEST PUSH1 0x1 DUP2 DUP2 SHR SWAP1 DUP3 AND DUP1 PUSH2 0xA5A JUMPI PUSH1 0x7F DUP3 AND SWAP2 POP JUMPDEST PUSH1 0x20 DUP3 LT DUP2 SUB PUSH2 0xA78 JUMPI PUSH4 0x4E487B71 PUSH1 0xE0 SHL PUSH0 MSTORE PUSH1 0x22 PUSH1 0x4 MSTORE PUSH1 0x24 PUSH0 REVERT JUMPDEST POP SWAP2 SWAP1 POP JUMP JUMPDEST PUSH0 PUSH1 0x1 DUP3 ADD PUSH2 0xA8F JUMPI PUSH2 0xA8F PUSH2 0xA1F JUMP JUMPDEST POP PUSH1 0x1 ADD SWAP1 JUMP JUMPDEST PUSH1 0x1F DUP3 GT ISZERO PUSH2 0xADD JUMPI DUP1 PUSH0 MSTORE PUSH1 0x20 PUSH0 KECCAK256 PUSH1 0x1F DUP5 ADD PUSH1 0x5 SHR DUP2 ADD PUSH1 0x20 DUP6 LT ISZERO PUSH2 0xABB JUMPI POP DUP1 JUMPDEST PUSH1 0x1F DUP5 ADD PUSH1 0x5 SHR DUP3 ADD SWAP2 POP JUMPDEST DUP2 DUP2 LT ISZERO PUSH2 0xADA JUMPI PUSH0 DUP2 SSTORE PUSH1 0x1 ADD PUSH2 0xAC7 JUMP JUMPDEST POP POP JUMPDEST POP POP POP JUMP JUMPDEST DUP2 MLOAD PUSH8 0xFFFFFFFFFFFFFFFF DUP2 GT ISZERO PUSH2 0xAFC JUMPI PUSH2 0xAFC PUSH2 0x933 JUMP JUMPDEST PUSH2 0xB10 DUP2 PUSH2 0xB0A DUP5 SLOAD PUSH2 0xA46 JUMP JUMPDEST DUP5 PUSH2 0xA96 JUMP JUMPDEST PUSH1 0x20 DUP1 PUSH1 0x1F DUP4 GT PUSH1 0x1 DUP2 EQ PUSH2 0xB43 JUMPI PUSH0 DUP5 ISZERO PUSH2 0xB2C JUMPI POP DUP6 DUP4 ADD MLOAD JUMPDEST PUSH0 NOT PUSH1 0x3 DUP7 SWAP1 SHL SHR NOT AND PUSH1 0x1 DUP6 SWAP1 SHL OR DUP6 SSTORE PUSH2 0xB9A JUMP JUMPDEST PUSH0 DUP6 DUP2 MSTORE PUSH1 0x20 DUP2 KECCAK256 PUSH1 0x1F NOT DUP7 AND SWAP2 JUMPDEST DUP3 DUP2 LT ISZERO PUSH2 0xB71 JUMPI DUP9 DUP7 ADD MLOAD DUP3 SSTORE SWAP5 DUP5 ADD SWAP5 PUSH1 0x1 SWAP1 SWAP2 ADD SWAP1 DUP5 ADD PUSH2 0xB52 JUMP JUMPDEST POP DUP6 DUP3 LT ISZERO PUSH2 0xB8E JUMPI DUP8 DUP6 ADD MLOAD PUSH0 NOT PUSH1 0x3 DUP9 SWAP1 SHL PUSH1 0xF8 AND SHR NOT AND DUP2 SSTORE JUMPDEST POP POP PUSH1 0x1 DUP5 PUSH1 0x1 SHL ADD DUP6 SSTORE JUMPDEST POP POP POP POP POP POP JUMP JUMPDEST PUSH0 DUP2 PUSH2 0xBB0 JUMPI PUSH2 0xBB0 PUSH2 0xA1F JUMP JUMPDEST POP PUSH0 NOT ADD SWAP1 JUMP JUMPDEST PUSH0 DUP3 PUSH2 0xBC5 JUMPI PUSH2 0xBC5 PUSH2 0xA0B JUMP JUMPDEST POP MOD SWAP1 JUMP JUMPDEST DUP1 DUP3 ADD DUP1 DUP3 GT ISZERO PUSH2 0xBDD JUMPI PUSH2 0xBDD PUSH2 0xA1F JUMP JUMPDEST SWAP3 SWAP2 POP POP JUMP JUMPDEST PUSH4 0x4E487B71 PUSH1 0xE0 SHL PUSH0 MSTORE PUSH1 0x32 PUSH1 0x4 MSTORE PUSH1 0x24 PUSH0 REVERT JUMPDEST DUP1 DUP3 MUL DUP2 ISZERO DUP3 DUP3 DIV DUP5 EQ OR PUSH2 0xBDD JUMPI PUSH2 0xBDD PUSH2 0xA1F JUMP INVALID LOG2 PUSH5 0x6970667358 0x22 SLT KECCAK256 EXP 0x23 0xE2 MOD DUP7 SWAP13 CALLDATALOAD PUSH3 0x42A93F NOT SWAP15 LT STOP 0xB7 PUSH19 0x9B251388830E2D06D4555038E2AEFA64736F6C PUSH4 0x43000818 STOP CALLER "},"gasEstimates":{"creation":{"codeDepositCost":"628000","executionCost":"infinite","totalCost":"infinite"},"external":{"approveRequest(uint256)":"53382","approvers(address)":"2540","approversCount()":"2316","contribute()":"50902","createRequest(string,uint256,address)":"infinite","finalizeRequest(uint256)":"infinite","getRequestsCount()":"2325","getSummary()":"infinite","manager()":"2424","minimumContribution()":"2360","requests(uint256)":"infinite"},"internal":{"addressToString(address)":"infinite","uintToString(uint256)":"infinite"}},"methodIdentifiers":{"approveRequest(uint256)":"d7d1bbdb","approvers(address)":"0a144391","approversCount()":"82fde093","contribute()":"d7bb99ba","createRequest(string,uint256,address)":"8a9cfd55","finalizeRequest(uint256)":"03441006","getRequestsCount()":"3410452a","getSummary()":"4051ddac","manager()":"481c6a75","minimumContribution()":"937e09b1","requests(uint256)":"81d12c58"}},"storageLayout":{"storage":[{"astId":56,"contract":"Campaign.sol:Campaign","label":"manager","offset":0,"slot":"0","type":"t_address"},{"astId":58,"contract":"Campaign.sol:Campaign","label":"minimumContribution","offset":0,"slot":"1","type":"t_uint256"},{"astId":62,"contract":"Campaign.sol:Campaign","label":"approvers","offset":0,"slot":"2","type":"t_mapping(t_address,t_bool)"},{"astId":64,"contract":"Campaign.sol:Campaign","label":"approversCount","offset":0,"slot":"3","type":"t_uint256"},{"astId":66,"contract":"Campaign.sol:Campaign","label":"numRequests","offset":0,"slot":"4","type":"t_uint256"},{"astId":71,"contract":"Campaign.sol:Campaign","label":"requests","offset":0,"slot":"5","type":"t_mapping(t_uint256,t_struct(Request)54_storage)"}],"types":{"t_address":{"encoding":"inplace","label":"address","numberOfBytes":"20"},"t_bool":{"encoding":"inplace","label":"bool","numberOfBytes":"1"},"t_mapping(t_address,t_bool)":{"encoding":"mapping","key":"t_address","label":"mapping(address => bool)","numberOfBytes":"32","value":"t_bool"},"t_mapping(t_uint256,t_struct(Request)54_storage)":{"encoding":"mapping","key":"t_uint256","label":"mapping(uint256 => struct Campaign.Request)","numberOfBytes":"32","value":"t_struct(Request)54_storage"},"t_string_storage":{"encoding":"bytes","label":"string","numberOfBytes":"32"},"t_struct(Request)54_storage":{"encoding":"inplace","label":"struct Campaign.Request","members":[{"astId":41,"contract":"Campaign.sol:Campaign","label":"description","offset":0,"slot":"0","type":"t_string_storage"},{"astId":43,"contract":"Campaign.sol:Campaign","label":"value","offset":0,"slot":"1","type":"t_uint256"},{"astId":45,"contract":"Campaign.sol:Campaign","label":"recipient","offset":0,"slot":"2","type":"t_address"},{"astId":47,"contract":"Campaign.sol:Campaign","label":"complete","offset":20,"slot":"2","type":"t_bool"},{"astId":49,"contract":"Campaign.sol:Campaign","label":"approvalCount","offset":0,"slot":"3","type":"t_uint256"},{"astId":53,"contract":"Campaign.sol:Campaign","label":"approvals","offset":0,"slot":"4","type":"t_mapping(t_address,t_bool)"}],"numberOfBytes":"160"},"t_uint256":{"encoding":"inplace","label":"uint256","numberOfBytes":"32"}}},"userdoc":{"kind":"user","methods":{},"version":1}}